:10000000F851002085360000B96C010071360000FF
:100010007136000071360000713600007136000044
:100020000000000000000000000000005537000044
:100030007136000000000000393900007136000000
:10004000B1390000B1390000B1390000B139000008
:10005000B1390000B1390000B1390000B1390000F8
:10006000B1390000B1390000B1390000B1390000E8
:10007000B1390000B1390000B1390000B1390000D8
:10008000B1390000B1390000B1390000B1390000C8
:10009000B1390000B1390000B1390000B1390000B8
:1000A000B1390000B1390000B1390000B1390000A8
:1000B000B1390000B1390000B1390000B139000098
:1000C000B1390000B1390000B1390000B139000088
:1000D000B1390000B1390000B1390000B139000078
:1000E000B1390000B1390000B1390000B139000068
:1000F000B1390000B1390000B1390000B139000058
:10010000B1390000B1390000B1390000B139000047
:10011000B1390000B1390000B1390000B139000037
:10012000B1390000B1390000B1390000B139000027
:10013000B1390000B1390000B1390000B139000017
:10014000B1390000B1390000B1390000B139000007
:04015000B1390000C1
:1001580080EA101404F0F01480EA0410604081EA88
:10016800111404F0F01481EA0411614082EA1214B7
:1001780004F0F01482EA0412624083EA131404F0D3
:10018800F01483EA0413634080EA102404F47F44E3
:1001980080EA0420604081EA112404F47F4481EA63
:1001A8000421614082EA122404F47F4482EA042292
:1001B800624083EA132404F47F4483EA04236340FF
:1001C80081EA500404F0553480EA4400614083EA2F
:1001D800520404F0553482EA4402634082EA9004EF
:1001E80004F0333480EA8400624083EA910404F026
:1001F800333481EA84016340704700BF82EA900487
:1002080004F0333480EA8400624083EA910404F005
:10021800333481EA8401634081EA500404F05534A0
:1002280080EA4400614083EA520404F0553482EACB
:100238004402634080EA102404F47F4480EA0420E6
:10024800604081EA112404F47F4481EA042161407A
:1002580082EA122404F47F4482EA0422624083EA98
:10026800132404F47F4483EA0423634080EA1014CF
:1002780004F0F01480EA0410604081EA111404F0DC
:10028800F01481EA0411614082EA121404F0F014B7
:1002980082EA0412624083EA131404F0F01483EA39
:1002A80004136340704700BF2DE9F14F94464FEAAD
:1002B800930B8A68CB6808684968FFF749FF0BF118
:1002C800060E33E083EA134480EA134582EA1347B3
:1002D80046BA96EA3444604000F00F1684EA0634C1
:1002E80020F00F1684EA161054BA94EA01067240F8
:1002F80002F00F1486EA043622F00F1486EA14126C
:100308004CBA6540694001F00F1485EA043521F0C4
:100318000F1485EA14115CBA67407B4003F00F1490
:1003280087EA043723F00F1487EA1413BCE8F000B7
:100338006040694072407B4000F0E03400F01035C6
:1003480000F00F3040EA540040EAC50080EA90040B
:1003580004F0332480EA8400604001F0E03401F0C6
:10036800103501F00F3141EA540141EAC50181EA33
:10037800910404F0332481EA8401614002F0E034FE
:1003880002F0103502F00F3242EA540242EAC50286
:1003980082EA920404F0332482EA8402624003F081
:1003A800E03403F0103503F00F3343EA540343EA13
:1003B800C50383EA930404F0332483EA8403634087
:1003C80081EA324787EA134581EA354690EA06040E
:1003D80084EA034B82EA1B4280EA044484EA054427
:1003E80083EA144A85EA14448BEA044B84EA3744C6
:1003F80081EA0B4181EA164104EA0A00454082EA93
:1004080004082BEA080041408AEA0B0602EA0600C3
:1004180084EA34438AEA3A4603EA060778404540C4
:10042800414088EA38478BEA3B4007EA000985EAF9
:10043800090583EA0709464006EA0906714085EA84
:10044800010005EA3546464006EA314181EA304175
:1004580081EA364606EA304686EA3546344008EAF6
:10046800010886EA01052A4086EA364003405A40D8
:1004780081EA31431F407C4080EA030709EA070903
:1004880088EA0908544088EA020806EA0A0601EAE6
:100498000B018AEA0B0215408AEA3A4210404540AD
:1004A8008BEA3B4003405E404240174079404D4054
:1004B8004E40E443F64386EA18435D4085EA05402A
:1004C80083EA134386EA034183EA384284EA114304
:1004D80083EA04435FEA3343BEF1010E3FF6F2AE0E
:1004E8001ED4BCE8F0006040694072407B4020BCEC
:1004F800FFF784FE28606960AA60EB60BDE8F08FB2
:100508002DE9E0414FF2F00280EA1031114080EA13
:100518000130484041088208C3084FF0000E4FE7F9
:1005280000F0113001F0113102F0113203F01133F3
:1005380040EA410040EA820040EAC3004FF2F0027C
:1005480080EA1031114080EA01304840BDE8E0817E
:100558002DE9F04F02F11C050646074600EB850819
:1005680051F8040B043A46F8040BF9D14FF0010C8A
:10057800FFF7C6FF5FEA302080EA0C001ECF41403B
:100588004A4053405C401EC62000464517D04FEAFB
:100598004C0C1CF4807F18BFACF1E50C2C2DE7D077
:1005A8003C2D06D1FFF7ACFF06CF41404A4006C6B6
:1005B800100006CF41404A4006C61000D8E736E989
:1005C8000F00FFF7C5FD043D86E80F00F7D1BDE831
:1005D800F08F00BF2DE9F14F03F11C0402EB840CEE
:1005E8004FEA930B8A68CB6808684968FFF7B0FD43
:1005F8003CE9F0006040694072407B400BF1060E18
:100608004EE083EA134480EA134582EA134746BA68
:1006180096EA3444604000F00F1684EA063420F06D
:100628000F1684EA161054BA94EA0106724002F0D2
:100638000F1486EA043622F00F1486EA14124CBA14
:100648006540694001F00F1485EA043521F00F1464
:1006580085EA14115CBA67407B4003F00F1487EAFF
:10066800043723F00F1487EA141344BA44404DBAF0
:100678004D4056BA56405FBA5F4087EA174886EA47
:10068800174B84EA17464FEA38488BEA1B4485EA39
:100698001B4788EA1B4580EA3440694072407B402A
:1006A80000F0703400F0803500F00F3040EA44006C
:1006B80040EAD50080EA900404F0332480EA8400FC
:1006C800604001F0703401F0803501F00F3141EAEB
:1006D800440141EAD50181EA910404F0332481EA16
:1006E8008401614002F0703402F0803502F00F326C
:1006F80042EA440242EAD50282EA920404F0332430
:1007080082EA8402624003F0703403F0803503F01B
:100718000F3343EA440343EAD50383EA930404F01E
:10072800332483EA84036340C943DB4381EA00043A
:1007380083EA044686EA020183EA014382EA3345F2
:1007480083EA14435C4084EA00077FEA040A8AEAE1
:10075800024A8AEA010B87EA11488AEA374A80EA9C
:10076800060181EA1A418AEA030A04EA0A004540B6
:1007780088EA040707EA0B0041408AEA0B0608EA00
:10078800060084EA34428AEA3A4602EA06035840F6
:100798004540414087EA37438BEA3B4003EA00097A
:1007A80085EA090582EA0309464006EA0906714016
:1007B80085EA010005EA3546464006EA314181EA04
:1007C800304181EA364606EA304686EA3546344004
:1007D8000F4086EA010508EA050886EA3640024025
:1007E80088EA020881EA314213405C4080EA020349
:1007F80009EA030987EA0907674088EA040806EA5C
:100808000A0601EA0B018AEA0B0425408AEA3A44FF
:10081800204045408BEA3B4B02EA0B02564084EAF3
:100828000B04234059406E40694087EA364080EA0D
:10083800384080EA060380EA104481EA134585EAD5
:10084800344585EA17427D4082EA354180EA054011
:100858003CE9F0006040694072407B40BEF1010E07
:100868003FF6CFAE20BCFFF7C9FC28606960AA60DC
:10087800EB60BDE8F08F00BFFFF76ABE30B44FF001
:10088800000310F8014B11F8015B013A84EA0504F2
:1008980043EA0403F5D1A3F101034FEAD37030BC56
:1008A800704700BF4FF0000310F8012B013943EAED
:1008B8000203F9D1A3F101034FEAD370704700BFD7
:1008C80030B411F8014B12F8015B6C4000F8014B91
:1008D800013BF6D130BC704753B94AB9002908BF6B
:1008E80000281CBF4FF0FF314FF0FF3000F00CB86C
:1008F800ADF1080C6DE904CE00F022F8DDF804E053
:10090800DDE9022304B07047704700BF10F8012BDF
:1009180011F8013B012A28BF9A42F7D0D01A704734
:10092800034611F8012B03F8012B002AF9D170476F
:10093800034613F8012B002AFBD1181A0138704717
:100948002DE9F0478C468E46089E15460446194602
:10095800002B40F0D080724547D9B2FA82F74FB1E8
:10096800C7F120030EFA07FCBD40BC4020FA03F390
:1009780043EA0C0C4FEA154EA8B2230CBCFBFEF858
:100988000EFB18CC08FB00F943EA0C43994528D91B
:10099800EB1808F1FF3204D2994502D9A8F10202F6
:1009A8002B44A3EB0903A4B2B3FBFEFC0EFB1C33E0
:1009B8000CFB00F044EA0344A04214D92C190CF1B2
:1009C800FF3304D2A04202D9ACF102032C44241A0A
:1009D80043EA02401EB1FC40002334607360BDE866
:1009E800F0874246DDE76346F1E7002A79D0B2FA9C
:1009F80082F3002B3FD01946C1F1200302FA01F51A
:100A080000FA01F42EFA03F20EFA01FE20FA03F3BB
:100A1800AFB243EA0E034FEA154EB2FBFEFC0EFBE3
:100A28001C201A0C0CFB07F842EA004290455AD9E0
:100A3800AA180CF1FF3004D2904502D9ACF102009B
:100A48002A44A2EB08029BB2B2FBFEFC0EFB1C225E
:100A58000CFB07F743EA02439F4246D9EB180CF117
:100A6800FF3204D29F4202D9ACF102022B44DB1BB5
:100A780042EA004202E0AEEB020301224FEA154EC1
:100A8800AFB2200CB3FBFEFC0EFB1C330CFB07F8CB
:100A980040EA034398452AD9EB180CF1FF3004D2F9
:100AA800984502D9ACF102002B44A3EB0803A4B289
:100AB800B3FBFEFC0EFB1C330CFB07F744EA0344B4
:100AC800A74216D92C190CF1FF3304D2A74202D938
:100AD800ACF102032C44E41B43EA00400F461146E4
:100AE80078E71F2188E76046ABE76246BFE76046C4
:100AF800DBE76346EFE7734506D916B900210846D8
:100B08006DE7C6E9000EF9E7B3FA83F787B97345CD
:100B180001D3824207D8841A6EEB030301209C4656
:100B28001EB900215BE73846FAE7C6E9004CF8E74A
:100B3800C7F1200CBB4000FA07F422FA0CF520FAA2
:100B48000CF1BA401D432EFA0CF30EFA07FE4FEAD9
:100B5800154941EA0E011FFA85FEB3FBF9F809FBB6
:100B680018300B0C08FB0EFA43EA00439A4540D9AB
:100B7800EB1808F1FF3004D29A4502D9A8F1020017
:100B88002B44A3EB0A0389B2B3FBF9F809FB18332A
:100B980008FB0EFE41EA03418E452CD9691808F17D
:100BA800FF3304D28E4502D9A8F10203294443EA4F
:100BB8000040A1EB0E01A0FB02984145CE464346FA
:100BC80002D306D14C4504D20138B9EB020E68EBCA
:100BD8000503002EA5D0B4EB0E0261EB030101FA68
:100BE8000CFC22FA07F3F9404CEA0303C6E900318A
:100BF80097E74046C5E74346D9E7000000000000F4
:100C080070B5114B11481A68BFF36F8F0168D1F89E
:100C18000455BFF36F8F1C689442F4D108A3D3E93D
:100C2800002307260A48A5FB000106FB0511FFF76C
:100C380053FE084BE4FB030170BD00BFAFF3008017
:100C480000CA9A3B0000000030150020D0010020A7
:100C58008D49FD1A0080841E4FF47A72F8B5A0FB06
:100C6800020302FB0131284B284A1C68772300192C
:100C780041EBE471FFF730FE14461D4620A3D3E98B
:100C880000232349234FA4FB010601FB0561FFF75D
:100C980023FE07224243064607FB0121A0FB070764
:100CA80000231B4A3944FFF717FE241A65EB01019C
:100CB80009014FF47A720023200141EA1471FFF709
:100CC8000BFE84B2082C38BF08240023B4F5F07F4B
:100CD80032461946104828BF4FF4F0740DF032FF21
:100CE80010B10E4815F0ADFC0023224619460C48F9
:100CF8000EF072F80B4B1878BDE8F8400CF0EEBD1A
:100D08008D49FD1A070000002C15002000009435BD
:100D180040420F008D49FD1AD00100202BBA010076
:100D2800C0010020DF28002008B5104815F089FC14
:100D380002F09EF80E4815F084FC02F089F8C0B263
:100D4800632808D070280CD10A4815F07AFC00F006
:100D580045FC002008BD084815F073FC00F09EFA19
:100D6800F7E7064815F06DFCE4E700BFB4B30100EF
:100D7800DBB3010015B4010038B40100DCE1010067
:100D88004FF4807330B585B0ADF8083000238DF886
:100D98000A30304D6B68A9681B682A695B060AD45B
:100DA8002D492E4840F2114215F061FC40F21141E4
:100DB800294815F053FC1368284643F04003136094
:100DC8000B68274A06219847044640B10146062386
:100DD8002A68244815F035FC204605B030BD224865
:100DE8000DF107010DF0B0FB28B1204815F029FCE2
:100DF8006FF00B04F0E79DF8073026218DF80C30D2
:100E080003238DF80D30012317488DF80E3002AA00
:100E180003AB0DF04FFA044608B11548E6E700F0B9
:100E280037FD2621054610480DF0DEFB0DF10602C0
:100E38000146284617F04FFF002801DA0D48D5E78C
:100E48009DF806000CF04AFD262107480DF09CFB92
:100E5800C2E700BFD4A6010055B4010086B4010062
:100E680001000A009EB4010078020020D2B40100FB
:100E780001B5010032B5010013B50446FFF7C0FE05
:100E88000D4BC31841F10001CDE900310B490A7837
:100E980082F001000870194615F06FFA6A46084991
:100EA800012006F073FF4FF400220023204610F0C3
:100EB80029F902B010BD00BF00127A00CB2800202B
:100EC8005511000038B50C4679B106F0B9FF054652
:100ED800204617F0B9FA3822054B02FB05339880F3
:100EE800044815F0AEFB002038BD0348F9E700BF01
:100EF800C80700205FB501007CB501001FB50B4A8B
:100F080001AB1068516803C390680949186001A8CB
:100F180006F024FB014628B1064815F092FB05B0FF
:100F28005DF804FB044815F08CFBF8E790AB010072
:100F3800B910000096B50100B9B5010070B5037885
:100F48008AB004460E4607AD032B20D8DFE803F02D
:100F580002191B1D11492846FFF7E2FC0595637825
:100F68001E210493A37830460393E3780C4A029336
:100F78002379019363790093A37914F083FF0AB06E
:100F880070BD0849E7E70849E5E70849E3E70A21AA
:100F98002846074A14F076FFE0E700BFCBB501000A
:100FA800F4B50100D2B50100D9B50100E3B50100DF
:100FB800EDB5010030B50C46054689B016F0EDF9DF
:100FC8006946FFF7BBFF22460D4C69460D4B0E489C
:100FD80015F037FB23782846013BDBB2237006F077
:100FE8002FFF3822094B002102FB003019F04AFA82
:100FF8002378022B01D1FFF781FF09B030BD00BF74
:10100800CA280020DDE1010017B60100C80700204A
:1010180030B50D4689B0044616F0BFF96946FFF7AA
:101028008DFF45B12A466946194B1A4815F009FB48
:10103800FFF764FF29E06946174815F002FB2046D0
:1010480006F0FEFE3823434314491548CA18506277
:10105800144824339062012090854FF6FF70508623
:101068000320194482F8340020460AF0D3F810F01F
:10107800FF0102D00C4815F0E4FA0C4A137801334A
:10108800DBB213701378022BD2D909B030BD00BF80
:10109800DDE101003BB601005EB60100C807002093
:1010A800E1ED0100CD0E00006DB60100CA28002058
:1010B800F0B5174695B005460C460F22002104A846
:1010C8001E4619F0DFF9012F33D830461A4904AA11
:1010D80003F07AFD194904A8FFF718FC48BB284615
:1010E8000CA9FFF72BFF224615480CA915F0A9FA01
:1010F80006F084FAE8B9134E08AC06F10C03019027
:101108000FCB84E80F00F069316A02AB03C302AA6F
:101118002146284601AB07F065FB024628B10A487C
:101128000CA915F08EFAFFF7E9FE019808B106F050
:10113800DDFC15B0F0BD00BF9F63010083B6010060
:1011480092B6010090AB0100AEB601002DE9F04760
:1011580090B0D1E900A907A9804607F0DBFA00287A
:101168003FD1404606F06CFE9DF83C300546022B08
:1011780037D138234343274FFC18A2888AB3D4E8D1
:10118800EF0F40F00102C4E8E12F0029F7D110F079
:10119800010026D1D4E90212C4E90412E28804F15C
:1011A800180622831C4AC4F81AA01278C4F81E90A4
:1011B80084F82220D4E8EF2F22F00102C4E8E12FBE
:1011C8000029F7D103F11002A1881323CDE901000A
:1011D80000903A4440460AF049FD28B10F4815F0FE
:1011E80030FA10B0BDE8F08729460D4815F029FA05
:1011F80094F822300B480493D6F80220D6F806302B
:10120800CDE90223238B0093D4E9042315F019FABE
:10121800E7E700BFC8070020CB280020CDB60100B3
:10122800EFB6010007B7010070B50121044603F0CD
:10123800A5F90378822B2BD124685CB3208816F09B
:101248005FF8054608B9012070BD06F0F9FD0646AD
:10125800284606F04BFC38220F4802FB0600D0E86F
:10126800EF3F43F00102C0E8E12F0029F7D1DB0787
:10127800E9D4A3686268C0E902236388C380D0E820
:10128800EF3F23F00103C0E8E23F002ADBD0F6E796
:101298000020D9E72046D7E7C807002007B5002077
:1012A80004F0FAFF014628B1154803B05DF804EBD5
:1012B80015F0C7B9134804F059F928B1124803B01A
:1012C8005DF804EB15F0BDB9012301A88DF80430D1
:1012D80015F0DCFC28B10D4815F0B3F903B05DF842
:1012E80004FBFFF74DFD0A4807F0D4F8FFF706FEA8
:1012F8004FF40022002307480FF004FFEEE700BF79
:101308004EB70100311200006EB7010092B701001C
:10131800880100200000002030B50C4D89B003ACD6
:101328000FCD0FC42B680A492360002302220093C3
:1013380003A805F06BFC014620B1064815F081F9B9
:1013480009B030BD044815F07CF9F9E7B4AB0100E9
:1013580084AC0100CAB70100F0B7010070B503788A
:101368008AB004460E4607AD032B20D8DFE803F009
:1013780002191B1D11492846FFF7D2FA0595637813
:101388001E210493A37830460393E3780C4A029312
:101398002379019363790093A37914F073FD0AB05C
:1013A80070BD0849E7E70849E5E70849E3E70A2186
:1013B8002846074A14F066FDE0E700BFCBB50100F8
:1013C800F4B50100D2B50100D9B50100E3B50100BB
:1013D800EDB5010010B50C4688B015F0DEFF694682
:1013E800FFF7BCFF22466946034B044815F029F96C
:1013F800FFF792FF08B010BDDDE1010017B601004C
:1014080010B50C4688B015F0C8FF6946FFF7A6FF6F
:101418004CB122466946064B064815F012F9FFF70B
:101428007BFF08B010BD6946034815F00AF9F8E7D4
:10143800DDE101003BB601005EB60100F0B5012117
:101448008BB0044603F09AF80378822B54D12468B1
:10145800002C53D0208815F053FF054610B9012001
:101468000BB0F0BD01A907F055F9002842D1069E3E
:10147800284606F03BFB224DD5E8EF3F43F001023A
:10148800C5E8E12F0029F7D1DB07E8D4FFF7B8FB5F
:101498001C4FD7F800C0D7F80A30D7F804E0B3EBF0
:1014A8000C03D7F80E20D4F804C062EB0E0213EB3D
:1014B8000C03D4F808E0B7F808C0648842EB0E02C1
:1014C800ACEB040474431B1942EBE47210F5FA7098
:1014D80041F100019842914103D21946B87C14F0B9
:1014E8004CFFD5E8EF3F23F00103C5E8E23F002AAF
:1014F800B5D0F6E70026BBE70020B1E72046AFE706
:1015080028150020CC28002030B5132B87B01446AE
:10151800BDF8282008D02B492B222B4815F0A7F816
:101528002B21284815F09AF832B126492C22264852
:1015380015F09DF82C21F4E7D4F80A102068D4F8A7
:101548000E2063688842934106D31E4930221E4804
:1015580015F08DF83021E4E71C4BD3E8EF2F42F06B
:101568000101C3E8E01F0028F7D1D20715D42246AD
:10157800174904F1100052F8045B824241F8045BF9
:10158800F9D11088088092788A70D3E8EF1F21F08B
:101598000101C3E8E21F002AF7D10E4815F051F8FF
:1015A800A37C0D480493D4F80A20D4F80E30CDE972
:1015B8000223238900932268636815F042F81320F8
:1015C80007B030BD05B8010086B401002815002019
:1015D800CC28002027B8010007B7010007B5002074
:1015E80004F05AFE014628B1134803B05DF804EB35
:1015F80015F027B8114803F0B9FF28B1104803B017
:101608005DF804EB15F01DB8012301A88DF804302E
:1016180015F03CFB28B10B4815F013F803B05DF842
:1016280004FB00F02FF9FFF7ABFB074806F032FF89
:10163800FFF772FEF2E700BF4EB701004514000045
:101648006EB7010092B70100A0010020B0F5827FBB
:1016580001BF024A13680133136070473015002038
:1016680073B52D4B00201E682C4B0DF107011D682A
:101678000CF03CF9041E05DA294814F0E2FF204674
:1016880002B070BD9DF8070017F04AFB254A0146D5
:1016980006F5A07017F01FFB041E01DA2248ECE7DC
:1016A800D6F8C0119DF80700002907DB6FF0150177
:1016B8001E4814F0C6FF6FF01504E0E705F5A074A6
:1016C80021F000410CF020F9204619490DF10602DD
:1016D80017F001FB041EE1DB9DF8070017F027FB5C
:1016E8009DF8061017F016FB041E04DA214611486F
:1016F80014F0A7FFC3E7D5F8C0119DF8070000292B
:1017080005DA21F000410CF0FFF80024B7E76FF08C
:1017180015010948CDE700BFD0010020C001002015
:1017280032B80100DF2800204BB801006CB8010076
:1017380000B001509EB80100DEB80100F0B50020ED
:1017480087B00AF0F1FF38B9404814F07AFF6FF01B
:101758001204204607B0F0BD00230393059301232C
:1017680002AD2946049300F09BFC041E04DA2146CE
:10177800374814F066FFECE7049B9B07FCD1059CF7
:1017880014B121463348F4E744F20713324E029469
:101798002946C5E901443046304AADF80A300DF013
:1017A8007DF9014618B12E4814F04BFFCFE72246C9
:1017B8000621142002F00CF8012130460DF02AFA17
:1017C800214630460DF006FA30460DF0A3F91022F6
:1017D800244B2549C3F8A02530680DF107020830CD
:1017E80017F079FA041E02DA21462048C1E79DF86D
:1017F80007000CF073F81E4B34681E4E93E8070080
:1018080085E80700294630461B4A37680DF090FAEC
:10181800014608B11948C7E704F580700DF10702C1
:1018280007F10C0117F057FA041E03DA144814F0F4
:1018380008FF8EE79DF807000CF050F830460DF0D1
:10184800B3FA07B0BDE8F040FFF70ABF19B90100C5
:101858003AB9010059B90100D0010020551600001D
:101868007EB9010000A0025010A10250A1B90100E8
:10187800C8AB0100C0010020C9630100D4B9010050
:10188800F9B90100014B1860704700BF2C15002002
:101898000048704700B101502DE9F04104460D465B
:1018A80014F0D4FD804600284AD12946204614F079
:1018B8009EFD0146204614F0E1FD04EB80010E690F
:1018C80096B90122E36882401343E36002220D6166
:1018D8002B462946204614F07FFD03222946204640
:1018E800BDE8F04114F078BD02223146204614F0DC
:1018F80068FD032201460746204614F062FD864231
:101908000AD045210F4815F031F988F31188BFF343
:101918006F8F0423184602DF3B46022229462046E1
:1019280014F05AFD032233462946204614F054FD8C
:1019380039462B46204614F04FFD02223146CEE7A9
:10194800BDE8F08143BA01002DE9F04117460322B2
:101958000E46044614F035FD8642054607F1040894
:101968000AD10122E368BA4023EA0203E3600023B4
:1019780044F82830BDE8F08102223146204614F0B0
:1019880020FD032201460746204614F01AFD864230
:1019980006D102222946204614F013FD86420BD0B8
:1019A80045210D4815F0E2F8002383F31188BFF3B1
:1019B8006F8F0423184602DF2B4639462046032240
:1019C80044F8285014F008FD3B4629462046BDE857
:1019D800F041022214F000BD43BA010038B50122DB
:1019E80005460C4614F0EDFCC30713D421462846DF
:1019F80014F026FD0146284614F01BFD844209D147
:101A08002146284614F015FD0146284614F018FD15
:101A180084420BD04521064815F0A8F8002383F32B
:101A28001188BFF36F8F0423184602DF38BD00BF4B
:101A38006CBA0100F8B50E46002900F084800468ED
:101A48000122204614F010FD01460546204614F0F8
:101A5800B8FC10EA02070BD1324645213A4815F086
:101A680085F887F31188BFF36F8F0423184602DFC8
:101A78002946204614F0E4FC0146204614F0D9FC1F
:101A8800A8420CD032464521304815F06FF80023A3
:101A980083F31188BFF36F8F0423184602DF2946AA
:101AA800204614F0C6FC0146204614F0C9FCA842A2
:101AB8000CD032464521264815F058F8002383F308
:101AC8001188BFF36F8F0423184602DF00222946CE
:101AD800204614F092FC294614F0B2FC012201467B
:101AE8000646204614F06DFCC2070CD43146204649
:101AF800FFF774FF3146204614F00FFD32462946A1
:101B0800204614F0C5FC2946204614F092FC012218
:101B180001460646204614F054FCC3070DD431464E
:101B28002046FFF75BFF3146204614F0F6FC2A46B4
:101B38003146204614F0ACFC354629462046BDE81F
:101B4800F840FFF7A9BEF8BD19BB0100BFBA0100F4
:101B5800EDBA0100B2F5802FF8B50CD2042A20D8CE
:101B6800394940F2E322394814F081FD40F2E3217B
:101B7800354814F073FD0823D21ACC1D114424F003
:101B8800070421F00701091B17294FEAD1060AD8D3
:101B98002D494FF43B722D4814F069FD4FF43B7109
:101BA800E6E70423E8E70023046031462046A66000
:101BB800E36014F063FC820002F11B05B6F5004FE8
:101BC8004FEAD5050BD26B1C9E4208D21E4940F243
:101BD80002321E4814F04BFD40F20231C8E70021E2
:101BE800043204F1100018F04DFC2A46204600216A
:101BF80014F01BFC002320461A46194614F0ECFB8F
:101C0800771B19462046012214F0F7FB3A4629466D
:101C180014F00BFC2B4600222946204614F0DCFB6E
:101C28003146204614F001FC3B463146204600224E
:101C380014F0D2FB31462046012214F0DEFB29467F
:101C4800BDE8F840FFF728BE43BB010086B4010099
:101C5800014B1B68184700BFE0010020014B1860CA
:101C6800704700BFE001002030B5044685B00D463E
:101C780010220021684618F005FC02238DF8023076
:101C8800044B2A4621466846019314F025F905B00D
:101C980030BD00BF591C000080B505460E461746EA
:101CA800984610F04FF9034601F090FEDFF83490A3
:101CB800044649F80030424639463046A8470A4BA0
:101CC8001B7853B909490A4840F2463214F0CFFC50
:101CD80040F24631054814F0C1FC54F8090001F0FF
:101CE80011FE00BF08000000AB2B00207FBB0100E5
:101CF80086B40100044608B5EFF31183202383F36B
:101D08001288BFF36F8F0BF077FC204602F076FD48
:101D1800024814F096FC14F0E4FFFCE7AABB0100AB
:101D28002DE9F84F838B04461807904613D50129EF
:101D38000CBF43F0100343F02003A38304F1140005
:101D480010F090FB002800F09A8088F31188BFF308
:101D58006F8FBDE8F88F022903F0070A40F04B8126
:101D6800204614F091FC052800F2F08001A353F8F6
:101D780020F000BF451D0000FF1F0000551F000098
:101D88000B1E00009B1E0000F71E000002F0070259
:101D9800531F012B1AD80023062A256889B2C4E9E3
:101DA800003309D12B4603E0E28B0132E2831B6842
:101DB800002BF9D141F002012046A18314F064FC04
:101DC800002800F0268141F0200121E1042A0DD1EC
:101DD80089B22046A18314F057FC0546002800F07C
:101DE800188141F020010025A18312E1944940F2B5
:101DF8001B12944814F03BFC40F21B11904814F05D
:101E08002DFCBAF1000F08D08D494FF4AB728D4804
:101E180014F02DFC4FF4AB71F0E7236843B98849FF
:101E280040F25712874814F022FC40F25711E5E7B8
:101E380023691F6847B982494FF4AD72814814F08D
:101E480016FC4FF4AD71D9E7564655464FF00609D2
:101E5800A18B21F0070141F0060189B2A183A36893
:101E6800002B00F0DD804FF0010B41F0080104F178
:101E7800140A5046A18310F0F5FA00286FD1724970
:101E88004FF499726F4814F0F2FB4FF499716E4851
:101E9800B5E7BAF1020F08D0694940F25D12694806
:101EA80014F0E5FB40F25D11A8E7E68B46B1644902
:101EB8004FF4AF72634814F0DAFB4FF4AF719DE74B
:101EC80023695F6847B95E4940F261125D4814F0C2
:101ED800CEFB40F2611191E7A18B354621F0070155
:101EE80041F0040189B24FF00409A183B7E7BAF1C0
:101EF800010F08D052494FF4B272524814F0B7FBA0
:101F08004FF4B2717AE7236843B94D4940F265123C
:101F18004C4814F0ACFB40F265116FE723699F68E9
:101F280047B947494FF4B472464814F0A0FB4FF440
:101F3800B47163E70026A18B354621F0070141F013
:101F4800050189B24FF00509A18388E73C4940F2B1
:101F58006B123C4814F08BFB40F26B114EE788F390
:101F68001188BFF36F8FBBF1000F16D165BB17B196
:101F780020463649B847EFF31188202383F31288A7
:101F8800BFF36F8F504610F05FFA28BB2E498422AA
:101F98002C4814F06CFB842179E7A1680029E5D06E
:101FA800D1F800800029E1D033464A462046D1F8CE
:101FB80004B0D847B8F1000F04D0D8F80030414633
:101FC8009846EFE74346FAE7294633464A4620460D
:101FD8002D6814F085FBC9E7504610F059FAA18B1B
:101FE80021F0080189B2A183CA061FD521F0100388
:101FF800A38301F0070AA669A28B002E22F007012D
:10200800BFF6C4AE00232568C4E9003341F00101DE
:10201800A18301F00709D1454FF000077FF41FAFF6
:102028000DB9002FE0D04FF0000B1EE78B067FF5AF
:1020380085AE21F02003A38301F0070A90E600BFD4
:10204800DEBB010086B4010003BC0100592000007A
:10205800F8B504460D4600F11406EFF31187202366
:1020680083F31288BFF36F8F304610F0EDF940B953
:1020780009490A48842214F0FAFA8421064814F01F
:10208800EDFA304610F004FAA5613A462046BDE85C
:10209800F8400121FFF744BE03BC010086B40100EB
:1020A8002DE9F04704460E4614F00AFB051E5ADBDC
:1020B80004F11409EFF3118A202383F31288BFF384
:1020C8006F8F484610F0C0F9804638B931498422EC
:1020D800314814F0CCFA84212E483CE0484610F0F0
:1020E800D7F94FF6FF72E38BA78B934207F00707E8
:1020F8003CD0062F26D8DFE807F0193C092519043B
:1021080019006FF085054FF0000802E00225013341
:10211800E383484610F0A6F970BB1E494FF4997244
:102128001D4814F0A4FA4FF49971D5E700233360E1
:10213800636823B9C4E900667FB13D46E3E71E60E2
:102148006660F9E7154914484FF4E47214F08FFA01
:102158004FF4E471114814F081FA524602212046E6
:10216800FFF7DEFD3D462846BDE8F0876FF00A051B
:10217800C9E76FF00405C6E78AF31188BFF36F8FCC
:10218800B8F1000FEFD000233A463146204614F04C
:10219800A7FAE8E703BC010086B40100DEBB010032
:1021A800F8B5054600F11406EFF31187202383F3F1
:1021B8001288BFF36F8F304610F046F938B92049BE
:1021C8008422204814F053FA84211D4825E0304623
:1021D80010F05EF9AC8B04F00704022C12D0012C2D
:1021E8000CBF6FF004046FF08504304610F03AF924
:1021F80008BB13494FF49972124814F038FA4FF497
:102208009971E2E7EB8B53B90F490E4840F2EF1290
:1022180014F02DFA40F2EF110B4814F01FFA013BAD
:102228009BB2EB83002BE0D13A4621462846FFF7C4
:1022380077FD2046F8BD87F31188BFF36F8FF8E765
:1022480003BC010086B40100DEBB010008B542688A
:10225800034602F00302032A816009D062B90749E4
:102268000748452214F003FA4521044814F0F6F90A
:10227800006800225A6008BD0020FAE730BC01005F
:1022880086B401002DE9F34106460F4615464FF086
:1022980000082A46304601A914F074FA044640B1F1
:1022A80002463946019818F0C7F82D1BA044274468
:1022B800EFD142463046311D14F082FA40B106494A
:1022C8000648482214F0D3F94821034814F0C6F907
:1022D800404602B0BDE8F08156BC010086B401005A
:1022E8002DE9F34107460E4615464FF000082A46E9
:1022F800384601A914F055FA044648B12EB10246F1
:102308000199304618F098F826442D1BA044EED1C8
:102318004246384607F10A0114F052FA40B106491C
:102328000648632214F0A3F96321034814F096F9D0
:10233800404602B0BDE8F08156BC010086B40100F9
:1023480010B530B90B48452114F010FC6FF015009A
:1023580010BD836833B90848452114F007FC6FF0B5
:102368000400F5E71B6813B1BDE81040184718468C
:10237800EEE700BF81BC010097BC010010B530B981
:102388000B48452114F0F2FB6FF0150010BD83686F
:1023980033B90848452114F0E9FB6FF00400F5E76C
:1023A8005B6813B1BDE8104018471846EEE700BF58
:1023B80081BC010097BC010070B508B101B132B908
:1023C8000B48452114F0D2FB6FF0150070BD8468EE
:1023D8000CB1256935B90748452114F0C7FB6FF0E2
:1023E8000400F3E741F8040B2369BDE8704018477F
:1023F800BABC010097BC010010B5044630B91048BA
:10240800452114F0B3FB6FF0150010BD006830B91A
:102418000C48452114F0AAFB6FF00100F5E783682A
:102428000BB15B6933B90848452114F09FFB6FF085
:102438000400EAE7616898470028E6D12060E4E7ED
:10244800EBBC010001BD010097BC010070B513464B
:10245800044630B91048452114F088FB6FF0150088
:1024680070BD006830B90D48452114F07FFB6FF04E
:102478000100F5E782680AB1956835B90848452131
:1024880014F074FB6FF00400EAE70A46AC46616892
:10249800BDE87040604700BFEBBC010001BD010012
:1024A80097BC0100034A13680BB9526813600020F7
:1024B800704700BFE401002030B50C460E4985B0D6
:1024C8000291D0F8CC110546CDE9003100F1F001B8
:1024D8004FF0FF3320460CF05BFE50B9012384F81F
:1024E8006C30D5F8C83123B1204605B0BDE830407E
:1024F800184705B030BD00BF036901002DE9F04F52
:10250800012381460569466889B005F55D77D7E8F6
:10251800EF2F002A03D1C7E8E13F0029F7D10CBF0C
:102528001A46002240F0B180B368B16A05F5F47824
:102538001C1F104614F031FA84426FD8013A00F09B
:102548009E80B2FA82F24FF00044D440726820466E
:10255800073222F00302C5F83422B16A14F01DFADA
:10256800C5F83802B36A40466343033323F00303D4
:1025780002EB4302230103EB4403093323F0030373
:1025880003EBC403C5F82C221A440832C5F82822E4
:102598007368C5F83042C5F824323D4BC5E9AB63D2
:1025A800316800F029FA0446002835D1D9F810B06E
:1025B800D9F804A0D9F800300BF53279CDE9060036
:1025C80005934846DAE90734012B08BF103C0EF0A2
:1025D800D9FBDAF824002F4905AB01EB80214FF431
:1025E80080624846009323460EF0E2FB2A490BF529
:1025F8002E700EF05DFADAE9050183685C684CB16B
:102608005B46264AA047044630B9DAE905018368E3
:102618001B692BB96FF05704002129E0013288E7C4
:102628000122984704460028F6D11D4B2846C5F8D4
:10263800C8311C4BC5F8CC311B4B0393D5F8383245
:102648000293D5F83432CDE9008305F50F73B26AE9
:10265800D5F8701300F098F904460028DCD105F18C
:10266800F0000CF03BFE0028C5F878030ADB0221D5
:10267800384614F07AF9204609B0BDE8F08F6FF0BB
:102688000B04C9E76FF01504C6E76FF07704F2E7AB
:102698005D690100B02B0020436901003769010022
:1026A80031270000796A0100B52600002DE9F041C4
:1026B80090460C4699B30B788BB3D0F8BC50A5F56F
:1026C800DE7614354FF0FF324FF0FF3328460DF019
:1026D8008DFC2146304614F012F90746A0B9304661
:1026E800104914F00CF9064620B92846BDE8F04117
:1026F80014F039B91F222146483017F0F4FE86F845
:102708006770C6F86880F0E7284614F02CF943464D
:10271800224639463046BDE8F041FFF7CDBEBDE858
:10272800F08100BFDDE1010013B5044640B100238C
:102738000122CDE90032074BD0E909120CF0FCFC6C
:10274800236F1B6823B1606F02B0BDE810401847C3
:1027580002B010BDDDE1010013B504460846216949
:1027680001F55D71D1E8AF1F022910D193B1A0B175
:102778000121CDE900311346D0E909120CF0DCFC47
:10278800074B984208BF6FF00B0002B010BD6FF006
:102798000F00FAE76FF04C00F7E76FF00100F4E77D
:1027A8002EF8FFFF2DE9F84389461546066906F518
:1027B8005D73D3E8AF3F022B66D11368EBB11B788A
:1027C800DBB1D6F87073002F3FD106F5E8784FF0EB
:1027D800FF324FF0FF3340460DF008FC30462968C1
:1027E80014F08DF8044660B93046294914F087F88A
:1027F800044638B9404614F0B6F86FF01500BDE845
:10280800F883012705F108032367AB6964646367EC
:10281800002384F86C3067B1404614F0A4F82146D0
:102828003046A36E2A68FFF747FE0020C9F800402B
:10283800E5E71F22296804F1480017F054FE4046D6
:1028480084F8677014F08FF8EFE73046104914F0F9
:1028580056F804460028D0D0002705F1080303677E
:10286800AB6980F86C70436740641F222968483060
:1028780017F039FE22460121304684F8677000F0CF
:1028880065F80028D1D0B8E76FF00F00B7E700BFB0
:10289800DDE1010010B50C46006900F55D73D3E871
:1028A800AF3F022B0FD189B10A4900F52E700EF007
:1028B800F9F9204616F00AFF78220021204617F081
:1028C800E1FD002010BD6FF00F00FBE76FF0010085
:1028D800F8E700BF341500202DE9F04F05460E46F5
:1028E80090460027D0F8BCA085B0AAF5BA74214656
:1028F8003046FEF70BF8E0B9134BA4F1480B0293EE
:10290800DAF810303246CDE9008329464FF0FF331C
:102918005846AAF5DE790CF03BFC88B978230122E9
:1029280003FB079383F86C20DAF80C300BB1584698
:1029380098477B1C022B4FF0010704F17804D6D18D
:1029480005B0BDE8F08F00BFA76A01001FB51446A7
:1029580090B18AB1012912D10A4B00F1F00102931A
:10296800D0F8CC31483201934FF0FF332046009322
:102978000CF00EFC04B010BD6FF01500FAE7002053
:10298800F8E700BFA76A01002DE9F04387B00E46BB
:10299800DDE90E811446DDE910251F4630B329B361
:1029A800DFF850C000F1F009002D08BF65469EB958
:1029B800CDE9034400F5DE742046059617F019F8B2
:1029C80003ABCDE900432A463B46414648460CF056
:1029D80035FE07B0BDE8F083002241460E92484616
:1029E8002A4607B0BDE8F0430CF07CBF6FF0150035
:1029F800EFE700BFE1280000F0B5044687B02B4A96
:102A080004AB0E4692E8030083E80300002C49D08B
:102A180018460CF095FA0546B0B94FF0FF33E16C53
:102A280004F15407A163CDE9010000933846236DF2
:102A380004F1380216F00BFBA06C14F05FF8C4F830
:102A4800BC0020B96FF00B05284607B0F0BDA06C9C
:102A580014F054F8C4F8C0000028F3D0236CD4F85C
:102A6800BC10C4F890300423C4F89430C4F8AC30D7
:102A78000223E3620E4BB4F84820C4F88C10616C52
:102A8800236204F18C03C4F8A070A4F89820C4F859
:102A9800B870C4F8A810A4F8B020C4F8A400A661BF
:102AA8002363D1E76FF01505CEE700BFD4AB010073
:102AB800C4AC0100014B036000207047F0AC01007A
:102AC80010B54FF42814DFF820C086B0CDE904C44F
:102AD8000824029404AC0194BDF82040009415F039
:102AE80097FC06B010BD00BF18002800044905482F
:102AF800B22208B513F0BBFDB221014813F0AEFDB8
:102B08002BBD010086B401002DE9F74F036C064682
:102B18000F469046002B47D114468D18AF4203D17B
:102B2800204603B0BDE8F08F306817F8011B8368B2
:102B38005B689847F2E70022002323E02C442F44E7
:102B4800A8EB0508B8F1000F25D04FF0010A42465E
:102B580039465846FFF796FB0546D9E8EF3FC9E8DE
:102B6800E2AF002AF9D123B9306883685B6903B101
:102B78009847002DE2D1351D17F05CF80028DAD10E
:102B8800D6E912230221CDE900232846002217F0B6
:102B98003BF90028DBD1002CC2D100F017FF6FF001
:102BA8000A04044B1C50BBE7002400F1300B00F171
:102BB8005009C7E70C0000002DE9F34705460C460D
:102BC8008368DB6B03B19847AB68DB6A002B3ED0A8
:102BD8002846984700283ADD002704F1140804F134
:102BE8001809218C238B626A5B1A9BB2D31A934211
:102BF80028BF13464946404601AA13F0ABFD82465A
:102C0800002853D0AB6801991B69B3B10246284626
:102C1800984706460028C8BF47F00107324649468C
:102C2800404613F0CDFD58B136493622364813F0E8
:102C38001EFD3621334813F011FD6FF05706EDE7FE
:102C4800564546D21FB10121201D17F0DAF8AB68AE
:102C5800DB69002B52D02846984700284EDD628F4A
:102C6800E38E04F130079B1A226C9BB2934204F165
:102C78003A0828BF13464146384601AA13F06AFDB0
:102C8800064660B3AB680199DB682BB30246284659
:102C9800984702464146384613F092FD50B3194909
:102CA8005722194813F0E3FC5721C3E77E2301227A
:102CB80020460DF103018DF80330FFF725FFAB68BF
:102CC8001B69002BBED0012228460DF1020198474E
:102CD8000646002E85DCB5E76FF05702DAE728468E
:102CE80013F085FF04F15003D3E8EF2FC3E8E16F39
:102CF8000029F9D10221201D17F083F802B0BDE8A0
:102D0800F08700BF5FBD010086B401002DE9F047E0
:102D1800D0F824A007460C46164686B0BAF1000F34
:102D280062D1D0E90A2302A817F005F8DDE9028983
:102D380096B3386883681B688BB10DF11701984703
:102D4800431C05460EDABAF1000F24D100F03EFE0E
:102D5800284B1D504FF0FF3006B0BDE8F0876FF0EC
:102D68005705F0E738B99DF81730013E04F8013BE4
:102D78000AF1010A0FD042464B4602A817F000F8A4
:102D8800DDE90223134306D00135D2D100212120E9
:102D98000FF068F8CDE756463046DDE700220023FD
:102DA80010E005440444361AAEB132462146404686
:102DB800FFF796FA0028F4D116F03CFF0028EDD171
:102DC800D7E90A230121CDE900234846002217F05C
:102DD8001BF80028E9D12DB900F0F8FD6FF00A05BD
:102DE800044B1D502846B7E7002500F1140800F1F0
:102DF8000409D9E70C00000070B504460E4609B373
:102E080000254FF0FF324FF0FF33C0E90555C0E908
:102E18000755C0E90A23C0E90C55C0E90E55C0E9B9
:102E2800122301604562056404300FF02DFE25650C
:102E3800B3682BB11B6C1BB1224630460349984737
:102E4800002070BD6FF01200FBE700BFC12B00002F
:102E580007B501220DF107010448FFF757FF0028C5
:102E6800A8BF9DF8070003B05DF804FB280C0020FC
:102E780038B5104D284616F0FAFDA0B129460E487F
:102E8800FFF7BAFF044660B9AB681B6C73B1102238
:102E98000A49094813F0CCFE10220949064813F0E4
:102EA800ABFE204638BD6FF01204FAE76FF08504D8
:102EB800F7E700BF44A70100280C0020E028002005
:102EC800F028002008B5044813F0BBFB034813F0B2
:102ED800B8FB002008BD00BF87BD0100BCBD0100D4
:102EE800014811F069B800BF7CAD010038B504464F
:102EF80018B90F4B0F485B6898476168B1F5683F90
:102F080010D0B1F5680F0DD00B4DA9420AD011F4BD
:102F18006861206807D0014608480CF0B3FF002319
:102F28002360656038BD142217F0ACFAF9E700BFDA
:102F380084040020E9BD01002C5F5CA9541A00201C
:102F480008B560B34368B3F5683F0ED0B3F5680FB2
:102F580018D0144A934220D000684FF0FF324FF047
:102F6800FF330DF043F858B115E001220368D3E8A8
:102F7800EF1F002903D1C3E8E02F0028F7D10AD1B9
:102F8800002008BD0368084A1B7803F5807352F8CF
:102F98002330002BF4D00548F3E70548F1E76FF438
:102FA800E040EEE72C5F5CA900000350E98FFFFFCB
:102FB800EA8FFFFF08B520B34368B3F5683F09D02F
:102FC800B3F5680F13D0114A93421DD000680DF075
:102FD800BBF814E000220368D3E8EF1F012903D1EE
:102FE800C3E8E02F0028F7D109D0094808BD00211F
:102FF8000368084A1B7803F5807342F82310002001
:10300800F4E76FF4E040F1E70348EFE72C5F5CA9D1
:10301800E98FFFFF00000350EA8FFFFF10B5044659
:1030280018B91D4B1D485B6898476368B3F5683F3E
:103038002FD0B3F5680F2CD0194A934219D12368C1
:1030480003BB4FF0FF324FF0FF33214615480CF019
:10305800A7FE08B923681BB90F4B13485B6898474C
:1030680014220021206817F00DFA4FF4686363609A
:1030780008E0B3F5680F0DD83A2B03D040F6BA62D2
:103088009342DED1206816F03FFD636843F03A03AF
:10309800636010BD054AF3E784040020E9BD010020
:1030A8002C5F5CA9541A00200FBE01003A00003AB8
:1030B80008B5064940231422054816F00FFDBDE85F
:1030C80008400449044811F007BA00BF541500200D
:1030D800541A002084AD010098AD010008B50348DA
:1030E800034A0021121A13F0DBFD08BDC8070020AF
:1030F800B02B0020074808B5074A0849121A13F0F0
:10310800D1FDBDE808400648064A0749121A13F0DF
:10311800C9BD00BF00000020C8070020C8EE01009C
:103128000000002000000020C8EE010037B5054669
:103138000C46C9B18B6814480093D1E90023452196
:1031480013F014FD636945210093D4E903230F4864
:1031580013F00CFD4521E2690D4813F007FD4521E8
:10316800A2690C4813F002FD012D06D1EFF3058288
:1031780045210948103A13F0F9FC2146284603B0C6
:10318800BDE830400CF0E8BB3CBE010070BE010059
:10319800A4BE0100B8BE0100EBBE010030BFFFF7BE
:1031A800FDBF00BF2DE9F04105460B4EDFF82C802E
:1031B800324606EB0807CC1B2046094917F03CF9B4
:1031C800A01942460021083C17F05CF9AC6707F1EA
:1031D8000800BDE8F08100BF000000000800000002
:1031E80090AB010010B5244C4521244813F0BEFCD7
:1031F800A36A99013ED52248452113F0B7FC1E2049
:10320800A36ADA0104D51F48452113F0AFFC1F203B
:10321800194CA36ADB0204D51B48452113F0A6FC10
:103228000220A36A1C0304D51848452113F09EFC0C
:103238002120114CA36A590304D51548452113F0E0
:1032480095FC2220A36A9A0304D51248452113F05D
:103258008DFC2320084CA36ADB0304D50E484521C6
:1032680013F084FC2420A36A6FEA03436FEA134334
:10327800A36210BD1D20C3E700ED00E003BF0100FD
:1032880020BF010038BF010057BF010086BF010001
:10329800A9BF0100D3BF0100F2BF010070B5284CDF
:1032A80006460D462748452113F060FCA36AD90459
:1032B8003BD52548452113F059FC1720A36A1A0568
:1032C80004D52248452113F051FC18201C4CA36A50
:1032D8009B0511D51E48452113F048FCA26BA36A33
:1032E800180408D545211B4813F040FC1EB1A36AF9
:1032F80023F40043A3621920114CA36A590504D58D
:103308001548452113F032FC1A20A36ADA050ED5B8
:103318001248452113F02AFC1B20094A936A43F4FA
:103328007F43936200232B7070BD1620C6E7A36A03
:103338009B04F2D50A48452113F018FC1C20ECE741
:1033480000ED00E022C001003DC0010053C00100B3
:103358006BC0010089C00100A3C00100C3C0010007
:10336800E0C0010070B5324C06460D463148452193
:1033780013F0FCFBA36AD90648D52F48452113F062
:10338800F5FB1120A36A1A0704D52C48452113F030
:10339800EDFB1220264CA36A9B0711D5452128482E
:1033A80013F0E4FB626BA36A190608D5452125488A
:1033B80013F0DCFB1EB1A36A23F08003A362132081
:1033C8001B4CA36ADA0704D51F48452113F0CEFB2E
:1033D8001420A36A9B0604D51C48452113F0C6FB9C
:1033E8001520134B9A6AD60602D49A6A94070FD509
:1033F8009B6AD9060CD51649164840F22D1213F0CF
:1034080036F940F22D11124813F028F91020B9E7C7
:10341800074B9A6A920642BF5A6A22F400525A62CD
:103428009A6A42F0FF029A6200232B7070BD00BFB7
:1034380000ED00E014C101002FC1010053C00100DC
:1034480067C1010084C101009FC10100E0C0010003
:10345800C3C1010086B40100F0B56E4B044658683C
:1034680000258BB0C0F3080385F31188BFF36F8F75
:1034780002F07F46B6F17F4F07D102F00C06082E06
:103488000ED14521644813F071FB644940F21B4298
:10349800634813F0ECF840F21B41604813F0DEF883
:1034A80016074CBF0C460125002CEED00026DA1E6C
:1034B8008DF80760092A00F29D80DFE802F0059088
:1034C800947B9B9B9B9B9B984521564813F04EFBF6
:1034D8008DF807604F4EF36A9A0705D54521524883
:1034E80013F044FB00232DE0F36A002B02DA452198
:1034F8004E48F5E7F36A5B0068D545214C4813F060
:1035080035FB7369A26943F480737361BFF34F8F0E
:10351800BFF36F8F32F8023C726922F480727261D5
:10352800BFF34F8FBFF36F8F03F47F42B2F55F4F46
:1035380027D1DBB2022B24D1452122683D4813F064
:1035480015FB23689DF80720CAB902AE04F12007CD
:10355800324620686168083403C2BC421646F7D177
:10356800099A002D52D0C2F3080121B96FEA5222FC
:103578006FEA42220992184602A9FFF7D7FD0BB05D
:10358800F0BD244B9A6AD2B232B101200DF1070185
:10359800FFF7E8FE0346D5E79A6A12F47F4F05D095
:1035A80001200DF10701FFF779FEF3E79B6AB3F5F8
:1035B800803F02D3FFF716FEECE7184940F2ED22F0
:1035C800174813F054F840F2ED2166E713494FF419
:1035D8003C72134813F04BF84FF43C715DE7002040
:1035E8000DF10701D4E700200DF10701DBE74521C4
:1035F800114875E7114910F4F87F114A114818BFAE
:103608000A46103B452113F0B1FA6BE76FF3080245
:10361800B0E700BF00ED00E023C20100C3C1010014
:1036280086B4010053C201006FC2010095C20100B7
:10363800A8C20100CCC20100EDC201000AC201000B
:10364800F5C1010016C30100064B5A6942F0100289
:103658005A615A6942F480625A615A6922F0080232
:103668005A61704700ED00E0EFF30880EFF309813D
:1036780001B57246FFF7F0FE01BD00BF002080F3E0
:103688001488BFF36F8F002080F30A8880F30B88BB
:103698000F4880F308880AF00BF800200D490860ED
:1036A800BFF34F8F00F02CF8202080F311880A48D0
:1036B8004FF40061401880F30988EFF31480022169
:1036C800084380F31488BFF36F8F00F0B5F800004B
:1036D800F851002094ED00E0B8400020002318467F
:1036E8000649D1F89020C2F30722934200DB7047C5
:1036F800C1F89830C1F8A0000133F6E700ED00E00A
:1037080010B572B6002484F31388FFF7E7FF234649
:103718004FF0FF300C4A03F120010133102B42F81F
:103728002100F8D100234FF0FF30074A03F1600170
:103738000133102B42F82100F8D162B6BFF34F8F46
:10374800BFF36F8F10BD00BF00E100E01EF0040F53
:103758000CBFEFF30880EFF30980816911F8021CB0
:103768000229FFD001B5724613F09EFA01BD00BFD1
:1037780040B2002807DB01234109034A00F01F007B
:10378800834042F82130704700E100E040B2002851
:103798000CDB01220649430900F01F008240203358
:1037A80041F82320BFF34F8FBFF36F8F704700BFDF
:1037B80000E100E0054B420953F82220012300F004
:1037C8001F0003FA00F01040704700BF00E100E05E
:1037D8000131072908B508D90D490E486B2212F0A6
:1037E80046FF6B210A4812F039FF40B20028ACBFEF
:1037F80000F16040084B4FEA4111C9B2ABBF00F578
:10380800614000F00F0080F80013195408BD00BF94
:103818002EC3010086B4010014ED00E0044B054AF4
:1038280023F07F039360BFF34F8FBFF36F8F704711
:103838000000000000ED00E008B5FFF7EFFF074AC1
:10384800D2F8883023F47003C2F88830FFF746FCBA
:10385800FFF750FC00F09CF80CF09EF900ED00E03A
:1038680042F8203C009B0B4942F81C3C019B21F08C
:10387800010142F8183C029B42F8081C42F8143C2B
:103888004FF0807342F8043C0023203A0265C36776
:10389800704700BFA11C000000B50D4B154698608D
:1038A800826F0C4B0E461A60836E83F30B882C468E
:1038B80086F309880020044B9847204600210022FF
:1038C8000023024C20470000DD6C0100A11C000011
:1038D800EC210020741A00201022014B1A61704755
:1038E80000ED00E0054B5A699B689A421FBF044AE5
:1038F800536843F080535360704700BFEC210020A9
:1039080000ED00E0084B9B6883420BD1EFF3058381
:1039180043B1064B5A6842F080525A605A6A22F400
:1039280000425A620EF014BBEC21002000ED00E0CA
:1039380014498A684FF030001044EFF3098C80E88E
:10394800F01F202080F31288BFF36F8F0E4F4FF0C7
:1039580000664A698A603E60906F0C4C2060D06FA8
:103968000023D36780F3118802F1300090E8F01F3C
:103978008CF3098802F1000004B513F0A4F9BDE83E
:1039880004407047EC21002004ED00E0741A002088
:10399800002320210348C2180133452B82F8001365
:1039A800F9D1704700E100E008B5EFF30583064A56
:1039B800103B02EBC30152F8330049688847BDE861
:1039C8000840FFF78FBF00BFB4A701000148006897
:1039D80070470000741A00201FB50121094B0A4ADC
:1039E8000A4800F00BF90023064A0393084B01210B
:1039F800019301A8D31A029300F01AF905B05DF8F3
:103A080004FB00BF0000072000000020A8AD010053
:103A1800C80700200A7A0B6810B562F304031C4635
:103A2800CB68520923F01F0343EA4203044A43F0D8
:103A38000103C2F89800C2F89C40C2F8A03010BD3B
:103A480000ED00E010B50A4B0446D3F89030C3F3FC
:103A58000723013B984208D902464521054813F03F
:103A680085F86FF01504204610BDFFF7D3FFFAE77D
:103A780000ED00E069C301002DE9F04F89461446C6
:103A880006464FF000084F4D85B0C84527DAD6F8EE
:103A980004A0BAF1000F44D0BAF11F0F18D91AF0D8
:103AA8001F0F15D1D6F800B01BF01F0F10D15846C4
:103AB80013F04CF907460AEB0B00013813F046F9EE
:103AC800874210D06FF015073A4645213E4802E07C
:103AD800424645213D4813F049F86FF01504204649
:103AE80005B0BDE8F08F17F1160FEDD0BC42EBDD45
:103AF800C5F89870D5F89C10C5F89870D5F8A0301E
:103B080021F01F0143F01F0BD6E900321A449942F5
:103B180002F1FF3A1AD1D34507D13146F8B213F072
:103B28001EF908F101080C36AFE73146C5F8987060
:103B3800D5F89C30E0B263F30402C5F89C2013F07A
:103B48000EF910F1160FC8D0441CEAE7C5F89870B2
:103B5800D5F8A020013B23F01F0302F01F021343F6
:103B6800D3453146E0B2C5F8A030E8D013F0F7F8F5
:103B780010F1160FB1D0C5F89870D5F89C209DF8B3
:103B880008300BF1FF3B62F304038DF80830D5F8D9
:103B9800A0309DF808205B0863F347128DF80820D1
:103BA800D6E900321344009323F01F035B44A3EBD0
:103BB8000A03013023F01F036946C0B20393FFF7DD
:103BC80041FFBEE700ED00E0BFC3010094C3010060
:103BD8000522044BC3F89420BFF34F8FBFF36F8FB8
:103BE800704700BF00ED00E0BFF35F8F0022024B7B
:103BF800C3F89420704700BF00ED00E010B5094CF1
:103C08002278FFF739FF207016300AD10649074895
:103C180040F2891212F02BFD40F28911024812F08D
:103C28001DFD10BD00290020E7C3010086B4010076
:103C38002DE9F74F2E4D8A4606464FF00008AB4651
:103C48002C4FD04502DB03B0BDE8F08FD6F80490C6
:103C5800B9F1000F47D031680846019113F076F8A2
:103C68000199044609EB0100013813F06FF884420A
:103C78004FF01402204B10D002FB08F36FF015022E
:103C88004BF803201D491E4840F2991212F0EFFC30
:103C980040F29911194812F0E1FC14F1160F2C604A
:103CA800F0D01978A142EDDD02FB08B0C7F89840C2
:103CB800C7F89840D7F89C4000F10801007B64F3EE
:103CC80004000871D7F8A0000C79400860F3471485
:103CD8000C71D7F89C1021F01F016960D7F8A0106B
:103CE80021F01F01296108F1010814350C36A8E7F5
:103CF800781A002000ED00E000290020E7C3010049
:103D080086B401002DE9F0416249634DD1F8903045
:103D18002C68C3F307239C4286B00AD95F4940F256
:103D280002225F4812F0A3FC40F202215B4812F025
:103D380095FC0020FFF758FF5A4BC1F8C030844269
:103D48001BD1594D01A82C70FEF7B4FE002607467A
:103D58004FF06108554CB74216D100202B784D49D9
:103D6800D1F89020C2F307229342C0F28D80002040
:103D7800FFF72EFF06B0BDE8F081696801EB00117E
:103D8800FFF748FE0130DAE7019A300102EB06132B
:103D9800D3F80CC00CEA0401B1F1807F53D00AD8E3
:103DA800B1F5001F29D0B1F5800F3FD0B1F5801FC4
:103DB80014D00136CFE7B1F1006F44D0B1F1805F84
:103DC800F7D159689B681258013B21F01F00034442
:103DD800CDE9021223F01F0301220BE059681258A3
:103DE8009B68CDE902122122013B21F01F00034408
:103DF80023F01F038DF8102032E0596812589B6891
:103E0800CDE902124122013B21F01F00034423F0B7
:103E18001F031CF0010F8DF81020059321D01F49B6
:103E280084221F4812F023FC84217FE759689B688D
:103E38001258013B21F01F000344CDE9021223F080
:103E48001F030622D6E7596812589B6821F01F0005
:103E5800013BCDE90212034423F01F038DF81080C3
:103E68000593287802A9FFF7EDFD002808DA0B4929
:103E780040F235220A4812F0FAFB40F2352155E7A4
:103E88002B7801332B7094E7C1F89830C1F8A00063
:103E9800013365E700ED00E0B4AD0100E7C30100C0
:103EA80086B40100AAFF4400002900200000F0FFAA
:103EB80008B5024811F0C6FFFEE700BF25C401009F
:103EC80008B5024B1B689847002008BD8C1A0020D3
:103ED800034B044A1860937843F0020393707047C9
:103EE8008C1A00206802002008B50649064821F00F
:103EF8000701C1F1005202F5E022FDF72BFE002078
:103F080008BD00BFCF760020901A002070B5416927
:103F18000446867A0A4D59B1437ADB0706D42C2326
:103F280003FB06535B6A1B689B6898470023636121
:103F38002C20214600FB0650BDE8704015F0FFBD5F
:103F4800680600202C22024B02FB0030704700BF9D
:103F5800680600202C21827A054B01FB02339A6AFD
:103F68001B7F801A1B3323F00303B0FBF3F0704769
:103F78006806002038B52C24827A064B04FB0233ED
:103F88005B6AD3E901240C601568FFF7E3FF04FBC3
:103F9800005038BD6806002008B5436843B106499B
:103FA8000648632212F063FB6321034812F056FBB4
:103FB80003824369C36008BD2AC4010086B40100B6
:103FC8002DE9FF470546684691461C46039115F0C2
:103FD800B2FEDDE900674DB956494FF4857256487F
:103FE80012F045FB4FF48571524813E005F11408AF
:103FF800EFF3118A202383F31288BFF36F8F4046B3
:104008000EF022FA40B94D4984224B4812F02FFB9A
:1040180084214A4812F022FB40460EF039FA6B8B95
:10402800002B54D02A8B9A4233D9002200232846E9
:104038000CF0F4F9044660B340460EF013FA40B9A8
:104048003E494FF499723C4812F011FB4FF49971B4
:10405800DFE78AF31188BFF36F8F039D002D58D0D7
:1040680032463B46684615F08BFE2C21A27A344B2B
:10407800204601FB02335B6A03A91B681E68DDE961
:104088000023B0476061002837D12046FFF73EFF84
:104098002EE06C8B4046631E6B830EF0E3F900281C
:1040A800CED08AF31188BFF36F8F2B7F2A8B1B33F7
:1040B800121BAC6A23F0030302FB0344204B214A82
:1040C800EB1A9B105343A3722B7FE372C5E740465C
:1040D8000EF0C8F90028B3D08AF31188BFF36F8FA8
:1040E80023464A4628460CF099F904460028B4D1DC
:1040F8000024204604B0BDE8F087039B9D420AD9FE
:104108000C4940F25F120C4812F0B1FA40F25F110C
:104118006AE72B4665610021012261602281638282
:10412800E27A04F1180016F0ADF92046FFF734FFE3
:10413800DFE700BF2AC4010086B4010003BC010008
:1041480068060020A38B2EBA70B50C46054650B9F8
:1041580022494FF4D372224812F089FA4FF4D371EE
:104168001E4812F07BFA41B91C4940F2A7121C48BC
:1041780012F07DFA40F2A711F2E7EFF3118620233F
:1041880083F31288BFF36F8F16480EF05DF938B9C4
:1041980015498422124812F06AFA84211248E0E78D
:1041A80010480EF075F9002323606B6873B9C5E9F0
:1041B80000440C480EF056F958B90B494FF499725F
:1041C800074812F054FA4FF49971E7E71C606C60E5
:1041D800EFE786F31188BFF36F8F70BD2AC4010023
:1041E80086B401009C1A002003BC010070B5044687
:1041F80050B91E491E4840F2B31212F038FA40F284
:10420800B3111A4812F02AFAEFF31186202383F328
:104218001288BFF36F8F17480EF016F938B9164990
:104228008422134812F023FA84211348EAE711483C
:104238000EF02EF925682DB162682B68954223602F
:1042480008BF63600B480EF00DF940B90A494FF4F6
:104258009972074812F00BFA4FF49971E5E786F363
:104268001188BFF36F8F284670BD00BF2AC40100B4
:1042780086B401009C1A002003BC0100F8B504466E
:10428800D0B100252C271A4E2046646800F1080298
:10429800D2E8EF3F591EC2E8EC1FBCF1000FF7D17E
:1042A80013F0FF0313D1134940F2D712124812F04A
:1042B800DEF940F2D71107E00E494FF4E2720E48DA
:1042C80012F0D5F94FF4E2710A4812F0C7F9012B40
:1042D80009D1837AC56007FB036345601B6A1BB17C
:1042E8009847002CD0D1F8BDFFF710FEF9E700BFC2
:1042F800680600202AC4010086B40100034610B5F0
:1043080050B910494FF4FE720F4812F0B0F94FF44B
:10431800FE710C4812F0A2F90833D3E8EF2F511CB4
:10432800C3E8E41F002CF8D1D3B2FF2B08D105490C
:104338004FF40072044812F09AF94FF40071E8E75C
:1043480010BD00BF2AC4010086B4010008B50346A9
:1043580050B90849084840F2492212F088F940F259
:104368004921044812F07AF918465B68002BFBD102
:1043780008BD00BF2AC4010086B4010070B50D460F
:10438800044650B90E494FF415720E4812F06FF9F1
:104398004FF415710A4812F061F941B9084940F221
:1043A8005522084812F063F940F25521F2E74668B1
:1043B8001EB10846FFF7CAFF4660656070BD00BFC2
:1043C8002AC4010086B4010038B505460C4651B927
:1043D8000B490C484FF4187212F049F94FF4187150
:1043E800074812F03BF920B9BDE838400846FFF706
:1043F80085BFFFF7ABFF2146FFF7C0FF284638BD52
:104408002AC4010086B401002DE9F84F06460C467F
:104418001546FFF79BFF002783464FF02C09DFF86E
:104428007CA0BBF81030BBF81220DBF81410D21AAD
:10443800DBF80C300BF10C005B1AD21AA24228BF31
:1044480022461FFA82F82946424612F0B8FCB4EB1D
:104458000804474445441DD00C9B53B1DDE90A01CB
:104468000D9A98478346A8B101463046FFF7ACFF3E
:10447800D7E7B07A09FB00A0436A9B6843B1A3421F
:1044880028BF23461946DDE90A23FFF799FDE9E726
:104498002146F8E73846BDE8F88F00BF68060020D7
:1044A80008B540B90A492B220A4812F0E0F82B2136
:1044B800074812F0D3F8838833B105492C22054800
:1044C80012F0D5F82C21F3E783680B44036008BD8C
:1044D80057C4010086B40100034670B5DC8805683E
:1044E80082889E68A818A41AAD1B641BA14208D92B
:1044F800054906483E2212F0BAF83E21024812F059
:10450800ADF80A449A8070BD57C4010086B4010012
:1045180008B5034600689A68821A91420AD9084980
:10452800084840F2551212F0A2F840F2551104481A
:1045380012F094F89A88401A11441860998008BDBE
:1045480057C4010086B4010008B5828803468A4230
:104558000AD20849084840F2C31212F088F840F21B
:10456800C311044812F07AF8521A8280006808448D
:10457800186008BD57C4010086B4010008B5034699
:104588009A8800688A420AD20749084840F2CF123E
:1045980012F06DF840F2CF11034812F05FF8521A8A
:1045A80001449A80196008BD57C4010086B401000F
:1045B800052370B5144D154E2C780134B4FBF3F374
:1045C80003EB8303E41A14F027FB114A137823B191
:1045D80056F82430C01A072814D94FF05023D3F8BE
:1045E800141141B10021C3F81411D3F814312C70FF
:1045F8000CB9012313702C7814F00EFB46F8240034
:10460800012070BD0020FCE702290020A01A00202C
:1046180001290020054B03EB8000D0F8003223F07D
:10462800E04343F04053C0F80032704700258450FF
:10463800012208B5104B1149C3F8002502230020B8
:10464800C1F8D036FFF7E6FF1046FFF7E3FFC1F8E1
:104658000427C1F80429C1F8002B00F097F850B1DD
:104668000749084840F23D2212F001F840F23D2186
:10467800034811F0F3FF08BD00100050004000503F
:1046880092C4010086B4010007B50022134B1449F7
:10469800C3F8A821C3F8AC204FF48062C3F8B8254A
:1046A8004FF400620F48C3F83C250DF1070214F0DF
:1046B80012FB00280ADA0C490C4840F2472211F094
:1046C800D6FF40F24721084811F0C8FF9DF80700BF
:1046D80009F004F903B05DF804FB00BF00A0025024
:1046E8002CA0025028A1025092C4010086B40100F7
:1046F80048B1054B054A1B68B3FBF2F35843044B1A
:1047080043F00103184770473804002040420F0067
:1047180040AC0100002170B5174C184D000714F883
:10472800013B5E0913D0012E06D14FF6FF7203F04C
:104738001F03DA40D2070DD4114912484FF48262A0
:1047480011F095FF4FF482610D4811F087FF4FF08B
:10475800FF32ECE70C4A0131012E18BF2A4602EB62
:104768008302D2F80032042923F0E04343EA00032D
:10477800C2F80032D3D170BD25EE01000025845067
:10478800C0C4010086B401000028845001490248D1
:1047980011F0BCBFECAD0100B41A00201FB508B37E
:1047A8000023019303930123694611480293FDF7FF
:1047B80077FC002808DA0F495A220F4811F057FFF2
:1047C8005A210C4811F04AFF029B9B0706D0094961
:1047D8006222094811F04BFF6221F2E7039B05B002
:1047E8005DF804FB0248FDF7DBFC0028F7DAEEE78A
:1047F800B41A0020F3C4010086B40100BFF34F8F40
:104808000549064BCA6802F4E0621343CB60BFF364
:104818004F8F00BFFDE700BF00ED00E00400FA0580
:1048280008B54FF0FF33044A13603F231046536026
:1048380009F030F8002008BDD41A002070B50B78B4
:1048480092B006460C4607AD032B31D8DFE803F0DB
:10485800022A2C2E19492846FCF762F80595637838
:10486800174A0493A3781E210393E3780AA80293B6
:10487800237910AD019363790093A37911F002FBBA
:1048880032460AAB1C4603CCAC421060516023464A
:1048980002F10802F6D1206810603046A3889380A0
:1048A80012B070BD0749D6E70749D4E70749D2E7F0
:1048B8000A212846064A11F0E5FACFE7CBB50100F0
:1048C800F4B50100D2B50100D9B50100E3B5010086
:1048D800EDB501000E4B402928BF402170B51D469B
:1048E8000C4C4618B04203F1020304D1002305F82A
:1048F8001130074870BD02781209A25C03F8022C37
:1049080010F8012B02F00F02A25C03F8012CE9E772
:104918000329002043EE010010B50024094B86B09E
:1049280009480393CDE904440CF02CFA03AB009337
:104938004FF4E1620A23054903480CF039FA20468E
:1049480006B010BD2BC50100800C0020B02F002040
:10495800014601480CF06ABB800C0020884208B56B
:1049680001F110030CD998420FD20C490C4840F2BF
:10497800B32211F07CFE40F2B321084811F06EFE1C
:10498800F3D000F110029142EEE7013813F8012D3F
:104998008B4200F8012FF9D108BD00BF34C50100D2
:1049A80086B40100034630B41A780846012A11D0AB
:1049B800022A20D062B9124A02F1100452F8045BAC
:1049C800A24241F8045BF9D15B881A0A8270C3706D
:1049D80030BC70470A4A02F1100452F8045BA24244
:1049E80041F8045BF9D15B681A0C190E427001702A
:1049F800C3F30722EAE7591C30BCFFF7AFBF00BF7B
:104A080054EE010038B5054615F014F9044608B906
:104A18000DF05AF8054BD3E8AF3F0BB1284698473D
:104A28001CB9BDE838400DF0A1B838BDDC1A00202B
:104A380038B50546022D104619460CD0082D12D05F
:104A4800202D10D0114912487A2211F010FE7A2137
:104A58000E4811F003FE0F4812F0A0F9044698B969
:104A68000024204638BD02460B460B4812F096F942
:104A780004460028F4D0082D0CBF0221052104F1BA
:104A88000C0012F0A8F9ECE70421F8E766C501006C
:104A980086B4010018070020680600200F2810B50A
:104AA8000CD80D280CD90A4812F078F9044618B128
:104AB80004210C3012F08FF9204610BD1328F2D0D3
:104AC80009B10448F0E70220BDE81040FFF7B0BF85
:104AD8009C070020EC06002038B50B6805460C46FC
:104AE80043B90D490D48FA2211F0C1FDFA210A48CF
:104AF80011F0B4FD4A68DA600B684A895A8208687E
:104B0800FFF7BCFB20461022002115F0BBFC28460D
:104B1800BDE8384012F034BA66C5010086B4010019
:104B28002DE9F84305460C461F46164642B9244966
:104B3800D622244811F09BFDD621214811F08EFD84
:104B480030B91F49D7221F4811F091FDD721F4E74A
:104B5800CA684B699A4206D11949DB22194811F0F3
:104B680086FDDB21E9E7084612F032FA804630B1CB
:104B78001349DD22134811F07AFDDD21DDE701F14B
:104B88000C09484605F10C0112F012F9E368626954
:104B980031469B1A13FA86F36B82012348466B72DF
:104BA8002E82FFF7D1FCE36828467B60638AC4F84D
:104BB8000C807B81A4F812803C60BDE8F88300BFBC
:104BC80066C5010086B40100F7B505460E461746CE
:104BD800AB88012B01D803B0F0BD284612F012F9BA
:104BE80004460028F7D0AB88984207D902465721D7
:104BF8000C4803B0BDE8F04011F0B8BF284612F0E9
:104C080001F92B688DF80000013C394668468DF89B
:104C180001400193B0470028DDD021462846FFF720
:104C280093FCD5E79CC50100C36857211A78014851
:104C380011F09CBFCCC5010038B50546144608469E
:104C480002EBC3039C4202D16FF05E000FE02246E4
:104C580012F8081BA9420FD1028A6378934207D938
:104C680006482B46452111F081FF6FF0150038BD2D
:104C7800636898470020FAE71446E3E7F9C501009E
:104C880038B5C4682378ABB9B4F801500F21284669
:104C980003F0A4F8E278044688B90D4B194633F8B6
:104CA800024B44B96FEA05536FEA135321F81030E9
:104CB800084B1A5438BD01300428F0D1FAE7427283
:104CC800012102F08FFF2046BDE8384002F00EBFF8
:104CD800802800208429002070B5C3681D786DBB2A
:104CE800B3F801600F21304603F078F8044630B974
:104CF8003246BDE870404521114811F037BF2946BA
:104D080002F070FFA378012B04D02046BDE8704064
:104D180002F0ECBE201D12F076F9C307F5D5032189
:104D2800204602F05FFF032012F0B1FA0246002885
:104D3800EBD05721034811F019FFE6E770BD00BF1B
:104D480020C601004BC6010010B5C3680121B3F8A5
:104D58000140204603F042F830B92246BDE8104031
:104D68004521034811F002BFBDE8104002F0BEBE65
:104D780076C60100012108B50C30FFF7FFFBBDE83E
:104D8800084002784521014811F0F0BE9FC6010095
:104D9800014608B50748FFF7D7F90749074814F04F
:104DA80039FF021E05DABDE808404521044811F024
:104DB800DDBE08BD6401002018030020D00D0020CE
:104DC800C6C6010010B5002486B003AB00934FF4AB
:104DD8002C724FF0FF3305490548CDE9034405948B
:104DE8000BF0E6FF204606B010BD00BFB836002025
:104DF800280D002010B5084C0146062294F86F00D3
:104E080003F000FC38B994F86F000522BDE81040A3
:104E1800024903F0F7BB10BD3000002029EE010065
:104E280073B505460C46FFF707FF5F300BD1268A9E
:104E3800E0683146FFF74EFD334600902A46572179
:104E4800024811F093FE02B070BD00BFE8C6010031
:104E580010B5012104460C30FFF790FB2146BDE850
:104E680010400223014A0078FFF7DABFB4AE010010
:104E780070B53B48FFF7BAF9044600286FD000F137
:104E88000C05284611F0BEFF0228024604D004286B
:104E980044D04521334804E0228A032A04D8452116
:104EA800314811F063FE11E004212846FFF766FB44
:104EB800FF22438806882276228AC6F30B00934293
:104EC800608307D04521294811F050FE2046FFF79E
:104ED800D5F913E00F2102F081FF054618B94521E5
:104EE800628B2348DDE702F0ABFF21462076320BC8
:104EF800284602F063FD284602F0F8FD1D4BD3F862
:104F0800343163B31C491D4814F084FE021E26DAAE
:104F1800BDE8704045211A4811F028BE28460221F4
:104F2800FFF72CFB054600783E2811D012F059F8FF
:104F380010F002060CD140F69A421249124811F0BC
:104F480096FB86F31188BFF36F8F0323184602DFA1
:104F5800042321460D4A2878FFF762FFB6E770BDA3
:104F680064010020B9C701000FC7010035C701005F
:104F78005EC701003000002018030020D00D00207B
:104F8800C6C6010085C7010086B40100C4AE010091
:104F980010B5012104460C30FFF7F0FA2146BDE8B0
:104FA80010400723014A0078FFF73ABFE4AE01003A
:104FB800F7B5174B04461A6800F10C06CAB9012167
:104FC8003046FFF7DBFA0578002321462846114AC8
:104FD800FFF732FE5F3019D1268AE0683146FFF7C5
:104FE80079FC334600902A4657210B4811F0BEFD44
:104FF8000CE0C3684169078A30465D1A90476369C7
:10500800278213FA85F3E3600028D8D003B0F0BDF7
:10501800701B00201CAF0100D2C7010070B5C56825
:105028000121B5F80160304602F0D8FE044630B9D7
:105038003246BDE8704045210B4811F097BD2B78EA
:105048003BB9D5F80330C0F89930D5F80730C0F827
:105058009D30201D4FF4003111F0DFFF2046BDE8E0
:10506800704002F043BD00BF76C6010008B502F0EB
:1050780005F9064B184611F0C6FF00F00B00D3E8FF
:10508800EF2FC3E8E10F0029F9D108BD0401002082
:105098002DE9F347D0F80C80018A98F80020930096
:1050A80001338B4265D900913348452111F05EFDEB
:1050B80002B0BDE8F0872A464521304811F056FD78
:1050C800013698F800309E42F2DA08EB8603B3F80E
:1050D80001500F212846B3F8037002F07FFE044602
:1050E8000028E8D000F1C0091FB9204602F0FEFCF4
:1050F800E6E7656975B94521214811F037FD214971
:1051080040F28722204811F0B2FA40F287211D4868
:1051180011F0A4FAA2692B6895422046636108BF82
:10512800A36102F0E1FB0BF02BFAC5F800A0236A9B
:1051380083B9C4E90755484611F065FF013FBFB27E
:1051480058B910494FF424720F4811F090FA4FF4EF
:105158002471DCE71D602562EDE7D9E8EF3F013BEC
:10516800C9E8E23F002AF8D10021204602F0C8FB36
:10517800BAE70026B246A4E709C8010039C8010009
:105188005AC8010085C7010086B401002DE9F0471F
:105198000C460CF099FCE5682A78022A73D0042A98
:1051A80009D045213C4811F0E1FC2046FFF766F89C
:1051B8006FF015040DE0B4F81080B8F1020F0DD8A7
:1051C80042464521354811F0D1FC2046FFF756F8F4
:1051D80000240CF0CBFC2046BDE8F08768783E2818
:1051E8000DD1B8F1030F03D1424645212C48EAE717
:1051F800EB78012B01D00A2B45D1032704E011F0ED
:10520800F0FE0746F8073ED504F10C0601213046AA
:10521800D4F814A0FFF798F902213046FFF7AEF949
:10522800814600783E2807D1E3681B78012B01D01E
:105238000A2B06D1032613E011F0D3FEC107064658
:105248000ED441F268121749174811F010FA0023DA
:1052580083F31188BFF36F8F0323184602DF0226FA
:10526800124A0623214699F80000FFF7D9FDB20734
:105278000DD56369A5EB0A0513FA85F5E560A4F871
:105288001080BB07A4D52046FFF782FDA0E7204683
:10529800FEF7F4FFF5E700BFBCC8010076C80100BF
:1052A80097C8010085C7010086B4010084AE0100DB
:1052B8002DE9F047884617460646002800F0828008
:1052C8000023DFF80491D9E8EF4FC9E8E23F002A4C
:1052D800F9D134B93246BDE8F04745213B4811F0D1
:1052E80045BC2046FEF736FE4FF00C0A384D0AFB47
:1052F80000504388B3421DD02046FEF72BFE0AFB20
:105308000050324643884521324811F02FFCD9E835
:10531800EF3FC9E8E24F002AF9D1002B52D02E49BD
:105328002E4840F6EE1211F0A2F940F6EE112A4886
:1053380011F094F9A74208D02046FEF72DFE3A8ACC
:10534800F96804F10C0011F03AFD2046FEF702FE60
:105358000C2606FB00504368ABB1B8F1000F12D120
:105368002046FEF7F7FD012106FB0050426853680E
:1053780003F01F00814010685B0900EB8300137A7B
:10538800E3B111F04AFE2046FEF7E4FD0C2606FBC9
:10539800005083686BB12046FEF7DCFD704305F8CA
:1053A80000802046FEF7D6FD06FB0055A8680BF0E6
:1053B800E7F82046BDE8F047FEF760BFC94311F0A3
:1053C80037FEE0E7BDE8F08760010020D5C801009E
:1053D800E01A002002C9010085C7010086B4010057
:1053E80073B5C5680121B5F80160304602F0F6FCD6
:1053F800044638B9324645213A4802B0BDE8704003
:1054080011F0B4BB2B78061D1A2B19D1C378012BC8
:105418004DD14FF48041304611F0FFFD42040FD4C6
:10542800D4F88C3069460093D4F894302046019320
:1054380003F0E8FD204602B0BDE8704002F056BB1C
:105448002B78A3BB40F2E243B5F8032026495A4320
:10545800C4F88820B5F80530A4F89030B5F80730BE
:10546800A4F89230A2F5EA530C3B8B4203D957219A
:105478001E4811F07BFBB4F89020B2F5FA7F03D3F5
:1054880057211B4811F072FB40F67641B4F8922080
:10549800A2F10A039BB28B4203D95721154811F098
:1054A80065FB6FF48051304611F0C2FD15E03046BF
:1054B80011F0A9FDC304F4D52B78202BF1D194F871
:1054C8009830002BEDD0013B84F898304FF420320F
:1054D800002304F140000BF015FE204602F032FFD5
:1054E800A8E700BF76C6010095F03C003AC9010064
:1054F80066C9010092C9010010B5C1E900239DF8F1
:1055080008300C460B72FEF725FD0C22024B02FBFD
:1055180000335C6010BD00BFE01A0020F8B50246F9
:105528000B46104811F03AFC0446C0B104210C3077
:10553800FEF7B6FF2046FEF70DFD0C2700260A4DA4
:1055480007FB005046802046FEF704FD07FB00508D
:1055580086602046FEF7FEFC07FB00556E6020467D
:10556800F8BD00BF70070020E01A0020014B18604A
:1055780000207047701B002010B5044692B04822E6
:105588006846064914F058FF112C9DBF12AB03EB77
:10559800840454F8480C024812B010BDDCAB01007A
:1055A800C3C90100034B0146D3F8500182689268D1
:1055B800104700BF3000002070B5042192B0274C7E
:1055C800274811F02AFD01F059FE4921254A2648AD
:1055D80011F0CCFA254DE179254A0AA8012998BF8E
:1055E80015462146FFF72AF92A46492121480AABE0
:1055F80011F0BCFA26460125E37907369D4220DBE7
:1056080094F870502846FFF7B7FFB4F87630024692
:105618000193B4F872304921009317482B4611F0D2
:10562800A5FA94F871502846FFF7A6FFB4F874302D
:105638000246009349212B46104811F097FA12B000
:1056480070BD314602A8FFF7F9F82A4649210C48EF
:1056580002AB11F08BFA0135CEE700BF3000002015
:1056680004010020CFC90100D3C90100CBC9010042
:10567800DDE10100EAC9010014CA010057CA0100AE
:10568800FEC901000048704783B6010008B5094902
:10569800094814F0BFFA00280ADA0849084841F214
:1056A8005F4210F0E4FF41F25F41044810F0D6FF7A
:1056B80008BD00BF08030020280D002085C7010091
:1056C80086B4010070B505460C4639B1CB684A6905
:1056D8009B1A032B0ED86FF0150509E04FF0FF3029
:1056E8004FF0FF31FFF71AFF044618B96FF068054D
:1056F800284670BD2046FEF72DFC0C22154BA61837
:1057080002FB0033032130465D80FEF701FF058070
:10571800238A0121033B8370304611F06CFB40F66D
:1057280035439D420ED12046FFF73CFF0546002831
:10573800DED002464521084811F018FA2046FEF747
:105748009DFDD5E72146054814F0EEF90025FFF741
:105758009DFFCDE7E01A002083CA01006C010020FC
:10576800F8B50446458B077E807AFEF7EBFB616946
:10577800064649B1637ADA0704D4436A20461B68AF
:105788009B689847002363612146304614F0D7F997
:10579800224B93F88A309B063FD5384603F056F9DA
:1057A800044630B93A46BDE8F84057211C4811F084
:1057B800DDB9837A073B012B08D91A48572111F024
:1057C800D5F92046BDE8F84002F090B902F08EF90C
:1057D8004FF0FF304FF0FF31FFF7A0FE044628B925
:1057E800BDE8F8404521104811F0C0B900F10C0798
:1057F80001213846FEF770FE01260421067038465E
:10580800FEF76AFE002305808670C3702146BDE856
:10581800F84040F63540FFF755BFF8BD300000208E
:10582800AACA0100D8CA010009CB01002DE9F0433A
:10583800804617460C4687B069B94FF0FF304FF0E5
:10584800FF31FFF76BFE0446B0B96FF068052846D4
:1058580007B0BDE8F083887AFEF774FB2F4B8342CC
:105868000AD02F492F484FF4D77210F000FF4FF499
:10587800D7712B4810F0F2FE02AE0122002130460B
:1058880014F067F92046FEF765FB0C23DFF89890C3
:1058980003FB009086602046FEF730FD0146404637
:1058A800FFF710FF054618B12046FEF7E7FCCEE7E4
:1058B8004FF4A022002330460AF0C6FE60B14FF430
:1058C800F1721749174810F0D2FE85F31188BFF31B
:1058D8006F8F0323184602DF2046FEF73BFB0C239D
:1058E800584319F800608EB1104B424657211048B2
:1058F80000933346093E11F039F9F6B22046FEF717
:10590800BDFC092E06D80B4B9D57A0E7002FCBD026
:105918003C609CE76FF0040599E700BF7007002022
:1059280085C7010086B40100E01A0020DDE101000E
:1059380031CB010064EE0100F7B5144B054693F92D
:105948009B300C46002B1DDA14B9204603B0F0BD7D
:10595800082C4FF0000142F2180001AA264628BF81
:105968000826FFF763FF0028F0D1019F3246F96847
:105978002846013114F060FD3846FEF77FFC3544B7
:10598800A41BE1E76FF08500E0E700BF30000020CE
:10599800F0B585B006460DF10301002000F0BAFF0E
:1059A8000446002846D14FF0FF304FF0FF31FFF793
:1059B800B5FD0746002840D019210C30FEF78CFDB4
:1059C80005462146192214F05DFD9DF8033006F1C5
:1059D80070012B73681D11F019FB194B38469A8911
:1059E800D4332A8033F8C62C6A80019307230293A4
:1059F8000123B6F88C208DF80C30A5F80D20B6F8E8
:105A08008E20A5F80F20B6F89020A5F81120B6F83A
:105A18009220A5F81320FEF79DFA0C22094B39466F
:105A280002FB003301AA5A6042F20D002246FFF73A
:105A3800FDFE0446204605B0F0BD6FF06804F9E7A6
:105A480030000020E01A00203C2870B505461AD125
:105A580001F0D8F86FF48071103011F0E9FA0020E5
:105A6800FFF7C8F9044628B9BDE870404521294820
:105A780011F07CB84572002102F0B4F82046BDE868
:105A8800704002F033B802283AD100210246084695
:105A980002F0B8FD044670B945211F4811F066F8B8
:105AA800032011F0F4FB024690B3BDE87040572183
:105AB8001A4811F05BB8043011F0A5FAC30707D5EE
:105AC8000321204602F08EF8204602F00FF8E7E79F
:105AD80004F140000BF068FA10F00C0606D15721CB
