:020000040100F9
:10000000D0550021997F0101D9050201857F0101A9
:10001000857F0101857F0101857F010100000000CE
:1000200000000000000000000000000069800101E5
:10003000857F01010000000045820101857F0101EB
:10004000BD820101BD820101BD820101BD820101AC
:10005000BD820101BD820101BD820101BD8201019C
:10006000510C0201BD820101BD820101BD8201016D
:10007000670C0201BD820101BD820101BD82010147
:10008000BD8201017D0C0201BD820101BD82010121
:10009000BD820101BD820101BD820101BD8201015C
:1000A000BD820101BD820101BD820101BD8201014C
:0800B000BD820101BD820101C6
:1000B800054B00221B78826001330260034A4260CC
:1000C800C371FF23037270471003002180010800E9
:1000D800064A074B02604FF424729B7882800822FC
:1000E800C371002382710372704700BFCB6701019F
:1000F80010030021064A074B02604FF44272DB7876
:1001080082800822C371002382710372704700BF86
:100118000D65010110030021064A074B02604FF4E8
:10012800B072DB7A82800822C371FF238271037266
:10013800704700BFBD5E0101100300212DE9F341A6
:10014800C41D0028064624F007040CBF00202046E2
:1001580000F03AFC071E04DA6FF00B0002B0BDE8AD
:10016800F081374DE988A88803316B7A03302A7A01
:1001780089B280B212F0F5FC0028EDDB3C44A97886
:10018800EB78002E04F10304194424F0030400FB67
:1001980001F10CBF0020204600F09CFD20440EB960
:1001A8000028D9DBEA7A0446B2B1EB7B697C1344B8
:1001B8001944FF29D0D80330002EAA89C9B220F0EB
:1001C80003040CBF0020204600F0F6FD0028C3DB26
:1001D80004440EB9002CBFDB012000F0EBFBB0B1EA
:1001E800A97BA1B195F82A3033B340234FF481722B
:1001F8000734002E24F007040CBF0020204603F02B
:1002080005FF0028A8DB04440EB9002CA4DBAB7A58
:10021800FBB1EB7AB3B10734002EA97A24F00704B6
:100228000CBF0020204608F0CBFD002894DB0444D6
:100238007EB9002C0DDA8FE725232822D8E700BFE6
:1002480010030021012000F0B5FB10B1AB7B002B9F
:10025800E1D1734B1B6893B1A97D81B10334002EA2
:10026800EA7D24F003040CBF0020204698470028AC
:10027800FFF672AF044416B9002CFFF66DAF694B58
:100288001B688BB1297C79B10334002E24F0030458
:100298000CBF0020204698470028FFF65DAF0444B5
:1002A80016B9002CFFF658AF5F4B1F68B7B1697CD1
:1002B800A1B10334002E2B7D24F0030408BF0020D5
:1002C800009318BF2046EB7CAA7CB8470028FFF6AD
:1002D80043AF044416B9002CFFF63EAF072000F0E8
:1002E80069FB98B1A97D89B10334002E2A7E24F0D8
:1002F80003040CBF0020204600F04CFE0028FFF647
:100308002BAF044416B9002CFFF626AFB6FA86F7D1
:1003180095F823007F09A0B103346B7FA97E24F0F0
:10032800070419443B4644F00404C9B2224600F0CD
:1003380071FE0028FFF610AF044416B9002CFFF632
:100348000BAF95F8241000294CD004F10708002EB3
:10035800EA8C28F007080CBF0020404612F015FC74
:10036800041EFFF6F9AE4444002E3ED1002CFFF6E1
:10037800F3AEA97F002945D095F82230002B41D053
:100388002A8C0734002E02F1240224F007080CBF3F
:100398000020404692B212F0F8FB0028FFF6DCAECF
:1003A800404416B90028FFF6D7AE03302B7FA97E4C
:1003B80020F0070019443B4640F0040495F8220059
:1003C800C9B2224600F018FE0028FFF6C5AE044464
:1003D80086B9002CFFF6C0AEEB6AF3B1C6B1EC6289
:1003E8000020BBE6002EC4D08846E98C40460EF0BB
:1003F80087FFBEE72A8C4046A97F083292B20EF0EA
:1004080085FFE9E7002EE7D0002211461046F6E7FF
:1004180028343FF5A1AE2046A0E6002EE0D1FAE749
:10042800F40F0021F80F0021FC0F00211FB572B650
:10043800194B1C6BECB9BFF34F8F1849184BCA689E
:1004480002F4E0621343CB60BFF34F8F00BFFDE7B8
:10045800B2FBF6F22B465D1C002AF9D1DBB203F1A0
:1004680010056D4405F80C2C0A2233B901A8A047E1
:10047800E1E7024600230A26EDE7013BDBB203F180
:1004880010050DEB0506B0FBF2F502FB1500303048
:1004980006F80C0C2846E8E71003002100ED00E000
:1004A8000400FA0513B5124C68462389ADF80030EC
:1004B800E388ADF80430A388ADF8023006F066FC96
:1004C80018B1FB219C20FFF7B1FF207D06F0B4FC9A
:1004D80008B1FE21F6E7E07C06F0A8FC08B1FF2190
:1004E800F0E794F828000DF02BF902B010BD00BF1A
:1004F8001003002138B5054600283DD011F04EFB09
:1005080010B94FF0FF3038BD0FF0CEFAB0F5FA7FD2
:10051800F7D81B4C002125631B2504F10F0084F834
:1005280034102A46217084F82A10E16211F0ACFDDB
:100538000123032108200222A370E370E372A3744D
:100548002376F72321722384FB23A0721F20A17333
:100558004921E3840A23A580E5806272A081E174C1
:10056800E27584F82830EFF3108472B600F062FD6B
:1005780004B962B60020C6E76FF01500C3E700BFF4
:100588001003002138B51446002840F0C480634D9C
:1005980095F83430032B00F0BB80B9B112B96FF075
:1005A800150038BD0139172900F2B580DFE801F0E0
:1005B8000C1D20366069873C6C6F814248565B8D04
:1005C800909FA2A596B3B3A81378AB700020FFF74D
:1005D800B5FD0028B7BF012302236FF00B0085F893
:1005E8003430A8BF85F83430DBE71378EB70EDE7DB
:1005F8001379002BD3D05379002BD0D01288FB2A43
:10060800CDD863881B3B9BB2E02BC8D81A2AC6D921
:100618002368A2886B60424B9A80D7E71378EA7BFD
:100628009342BCD3EB72D1E71378EA7A9342B6D8F7
:10063800EB73CBE71378EA7A9342B0D86B74C5E7CB
:100648001378002BABD05378013BDBB2F82BA6D83C
:10065800138892786B82334B9A70B7E71078687575
:100668000DF02CF8B2E71378002B98D02B76ADE775
:10067800012000F09FF9237808B1012B8FD9AB73C3
:10068800A4E71388AB81A1E71378AB759EE7072031
:1006980000F090F910B92378012B80D9072000F0D9
:1006A80089F918B12378002B3FF479AF2378EB75DB
:1006B8008CE71378082B3FF672AF2B7486E7138804
:1006C800FF2B3FF66CAFAB7280E713786B767DE754
:1006D80013780E2B3FF663AFAB7677E72368124AA1
:1006E800C5F81E3063685360238913816EE7137859
:1006F800EB766BE713786B7768E713782B7765E70A
:1007080013785A1E092A3FF64AAF85F828305DE764
:100718004FF0FF3045E76FF02C0042E7100300214F
:1007280014030021220300212E030021F8B50D46F1
:10073800064630B329B311F0070422D1124F97F8B7
:100748003430012B02D16FF00B00F8BD032B02D11E
:100758004FF0FF30F9E700F0A9FC0028F8D0284650
:10076800FFF7ECFC0028EEDB0CF0F0FF3046F96AEE
:1007780006F0D4FBFFF796FE0323204687F83430B3
:10078800E3E76FF01500E0E71003002110B5074C10
:1007980094F83430032B03D106F0D8FB07F078FB2C
:1007A80012F036FB002084F8340010BD100300213D
:1007B80008B506F05FFB03490320BDE8084000F0D8
:1007C800F1B800BF2101000108B506F067FB034935
:1007D8000220BDE8084000F0E5B800BFFD000001B8
:1007E80008B506F07DFB0549012000F0DBF8044957
:1007F8000020BDE8084000F0D5B800BFB9000001EE
:10080800D9000001074B4FF0FF3141F6FF72C3E9F1
:10081800001205490022C1E900221F21C3E9021282
:10082800704700BF00000021480300213F280CD872
:1008380001380B4BC0F3421200F01F0053F822306E
:1008480023FA00F000F001007047FF2806D0403876
:10085800044BC0F3421200F01F00EFE7012070477D
:100868000000002148030021074B01460068496841
:100878001A4603C240F48C2200201A6041F010721C
:1008880042F4FF625A607047000000210246034BA1
:100898000068516803C30020704700BF4803002167
:1008A8000246034B0068516803C30020704700BF2D
:1008B800080000210138064BC0F3421200F01F0067
:1008C80003EB82039B6823FA00F000F001007047F5
:1008D800000000210A8870B595B2C67CC2F30E02EA
:1008E8000488023602F118033444C35AA4B23344CC
:1008F8002344013BB3FBF4F303FB0422438892B285
:100908009342044B8BBF2B40AB4313439BB20B80EA
:1009180070BD00BF0080FFFF4A1E062A08B50346C7
:10092800084604D84FF4D1711520FFF77FFD094A16
:10093800914202D940F2A311F6E711B903B1196047
:1009480008BD2BB11B680022C3E901211A1D1A60DA
:100958000430F5E7FAFFFF7F10B5114B00EB4104B7
:100968001A786389B3FBF2F303FB0223013A1A44B2
:10097800B2F5706F0279807828BF00231A440B18EB
:10098800B2FBF0F100FB11215B1AB3FBF0F100FBA5
:10099800113313446FEA43436FEA5343638110BD35
:1009A80050030021024B03EB80035960704700BFDE
:1009B80050030021034B03EB80035868003818BF2D
:1009C80001207047500300212DE9F04F10F0070A6D
:1009D80085B0054604D040F26F111720FFF726FDB9
:1009E800534F04464FF0010B07F14C06B146B04691
:1009F80057F8043B8DF80BA03BB101A898479DF828
:100A08000A30082B01D9F521E7E79DF80B1041BB07
:100A180005B131604F4506F10406E9D1002D6FD0CC
:100A28000022DFF810911227964689F8002058F81E
:100A380027A0013FBAF1000F55D09AF804609AF840
:100A480002C0FF2E60D039460023481C38D19C4490
:100A5800BCF1FF0F3FD90AB189F800E04FF49A7151
:100A6800BBE79DF80AC04B1D60465A0004EB4303E0
:100A7800022838BF0220441E40422344BDF80840E3
:100A88006444CCF1000C0340013C04EA0C04B4F5C6
:100A9800803F02D340F205119FE775B19A1A326080
:100AA8009170148082F803B09DF80C0010710198C1
:100AB8004FEA104C1081A2F806C004FB0134A9E7E4
:100AC80058F8210028B190F804B0B34504BF8078E5
:100AD8001B180139B9E7DBB2E6458AF804303CBF98
:100AE8005FFA8CFE01227B1CA1D10AB189F800E0D3
:100AF800122640F6FF6A58F82670B7B9013EFAD2B6
:100B0800601B05B0BDE8F08F0023E5E707EB410364
:100B180009F101093846A3F80AA0FFF71DFF5FFA9B
:100B280089F1BB788B42F1D8E8E74FF00009F6E786
:100B3800540300215003002138B54FF6FF730246D5
:100B48000380184B03EB8103186DA8B184780379EF
:100B5800B3FBF4F104FB1133DBB2194600EB41059A
:100B6800B5F90A50002D0EDB0131B1FBF4F504FB99
:100B78001511C9B28B42F1D1002038BD6381BDE89F
:100B8800384011F0CABF00EB41046389C3F30E0378
:100B98001380C278002AF1D14FF4E5711720FFF7CE
:100BA80045FC00BF500300211C4B03EB810370B5CB
:100BB8001C6D054644B3030404D54FF4EC711720AB
:100BC800FFF734FC0146204611F08AFFFF28014652
:100BD80004D02046BDE8704011F09FBFA078B5FB57
:100BE800F0F300FB1353DBB219460A1D04EB42066F
:100BF800B6F90260002E09DB0131B1FBF0F200FB0F
:100C08001211C9B28B42F0D1002070BD8B4201D0C5
:100C18000023E37004EB42025580DAE75003002119
:100C2800094B03EB8103014610B51C6D204611F0FA
:100C380057FFFF28014604D02046BDE8104011F0B8
:100C48006CBF002010BD00BF50030021F8B5104B49
:100C5800074603EB810301461C6D204611F040FF57
:100C6800FF28054611D0E288238953EA024606D0B8
:100C78000146204611F051FF01463846B04720464C
:100C88002946FFF769FE0020F8BD0520FCE700BFF4
:100C98005003002138B50E4B0446827903EB8203DA
:100CA800186D08B9052038BD8278E1799142F9D2EA
:100CB8004B1CE37100EB41035D89B3F90A30002B4B
:100CC800F3DBA58011F029FF20600020EBE700BFCF
:100CD8005003002170B5044610F003000E4603D0FF
:100CE8004E211820FFF7A2FBFFF716FE054624B198
:100CF800034831460460FFF70FFE284670BD00BF69
:100D0800EC0300212DE9F14FDFF870B01E460746CD
:100D18000D46DBF8003090469DF828A09DF82C90F1
:100D28001BB960211820FFF781FB52460921404674
:100D380011F05AFD4A4684B20921304611F054FD9B
:100D480081B2DBF80000214411F09EFE386018B92A
:100D5800286001B0BDE8F08F04445346414609229B
:100D68002C60386811F003FD4B460922314628688B
:100D780001B0BDE8F04F11F0FABC00BFEC03002150
:100D880070B50E46044611F042FD0546304611F096
:100D98003EFD044B2A1821461868BDE8704011F042
:100DA80098BE00BFEC030021024B186808B111F08F
:100DB8005FBE7047EC0300211F2AF8B504461346AE
:100DC8000ED89200033222F00303B3F5803F2DD2F0
:100DD800184DACB1A00710D068210920FFF726FBF9
:100DE800FF2B4FEA420204D9FF339A42A8BF1A46A2
:100DF800E8E77C2AB8BF7C22E4E729706C602B8185
:100E080022F0030228230127120403FB01F06B6878
:100E18000025120CEEB2B14200D8F8BD14B1261864
:100E28001F705E60104401352833F3E74FF0FF3040
:100E3800F3E700BFF0030021154A002170B553689D
:100E48001578C8B2854203D8BA210920FFF7EEFA0F
:100E58001C461846013114F8286B0EB92346F0E7F2
:100E68000021997001241289996103F126055C70AB
:100E78009208D96103F11E04596824F8022FA5428B
:100E880043F8041F1144F8D100234361037070BD77
:100E9800F00300210A4B1B89B3F5FF7F4FEA93004B
:100EA80006D25A089B1A9BB2984238BF1846704718
:100EB800B3F5EE6F01D8FF22F4E740F27263F3E76F
:100EC800F00300214B782DE9F04106460C4602F06C
:100ED800040702F0FB05E3B1A5BBFF23A3707B0861
:100EE80004EB57073A7D032A02D1022D18BF0133BC
:100EF800E2180121117503F10C01002204EB8303B0
:100F080024F811205B68A27030463360B280BDE8D7
:100F1800F081002DE1D1012301F11E028D612046EF
:100F28004B7004F1260C1A4BCD611B8949689B084C
:100F380022F8023F944540F8041F1944F8D10023D1
:100F48006361CAE7D1F8048014220021A0186170F7
:100F580011F09AF80E4B1B89B3F5FF7F0FD25A0890
:100F68009B1A9BB208EB0301C4F804802384A16098
:100F78006284C4F80C80A3842161E284ADE7B3F5F0
:100F8800EE6F4FF0FF02EBD940F27263EAE700BF61
:100F9800F00300212DE9F84305460C46F72005210A
:100FA800914611F021FC061E21DB1DB906FB04F059
:100FB800BDE8F88315F0030703D098211920FFF73F
:100FC80035FADFF83080C8F81050A8F81460BBB2C2
:100FD8009C42EBD9B8F814504B46D8F810000522BB
:100FE800F72107FB0500013711F0C1FBEFE74FF0D0
:100FF800FF30DDE70404002107B5CDE900230B46E7
:1010080003490246081D11F0DDFE03B05DF804FB3C
:101018001C04002113B5064CCDE900230B460246FB
:1010280004F1080104F10C0011F0CCFE02B010BD6F
:101038001C040021144B012200214FF0FF309A605C
:10104800C3F80012C3F80803C3F80015C3F8042551
:101058009A60C3F808034FF48040C3F80015C3F83A
:10106800042503F5805341F6F8720849C3F80825AA
:10107800C1F88000BFF34F8FBFF36F8FC1F88001B5
:10108800C3F80825704700BF00E0004100E100E018
:1010980002680020014B1A60704700BF2C04002131
:1010A800014B1B68184700BF2C040021024B18682D
:1010B800003818BF012070472C0400218C469B2261
:1010C800064B00B50CF8032B8E4607CBCEF8030071
:1010D800CCF80410CCF808205DF804FB3C0400218F
:1010E8002DE9F0411C4E044600F00107736A93F89D
:1010F800A850B5F1000818BF4FF001081DB117B18D
:10110800338D1A0714D4012916D8F36A2046984754
:1011180090B196F830307BB98DB987B1308D58B918
:1011280096F831304BB996F8320080F0010004E0AF
:1011380096F82A30002BE6D00120BDE8F08184F033
:10114800010010EA0800F8D0308D8307E7D596F83B
:101158002A0080F00100F0E73004002110B5154C9A
:101168000DF058FC0DF06CFF0021A36BA08E984782
:10117800237E93B9A18E606A07F0D0FF636AB3F843
:10118800AA0007F0D3FD236C94F8301094F83C00C3
:101198009847002384F8443010BD94E8070004F110
:1011A8000C0383E80700044904F1190013F09FFDBC
:1011B800E0E700BF30040021C5100001034B93F89D
:1011C800443003B97047FFF7C9BF00BF300400219E
:1011D80008B5094B93F84420022A07D1DA7A42F07D
:1011E8000102DA72BDE80840FFF7B8BF40F2573194
:1011F8002720FFF71BF900BF300400211E4910B457
:101208008C6C42782378D20003F0F30302F00802D2
:1012180013438278920002F004021343C278120149
:1012280003F0EC0302F010021343027802F0030209
:10123800134302222370B1F854306370A1F84C2094
:101248008C6C007923784201012823F0200302F0F6
:10125800200243EA020323700CD14B6A93F8BA20A8
:1012680093F8BB30032A03F01F0308BF002243EAA8
:101278008213A37010BC704730040021F0B5194CDC
:1012880083B0A56D4DB3636E3BB3B4F8683001F01D
:1012980003012F4606466B702B7823F003030B439C
:1012A80007F8033B3846B4F86820616E10F098FFE1
:1012B8000DF1020201A9E06EE565676611F0CEFB4B
:1012C800019811F0B9FB0346B4F868100122E06EEA
:1012D800336011F05CFB03B0F0BD40F6C601272077
:1012E800FFF7A4F830040021F8B5244C4FF48173BB
:1012F8000646656AA4F860302A7D94F87430276F32
:1013080003EB820095F82111E765FF2804D11EB987
:1013180095F820318B4216D00CF02CFE2B7D3BB378
:10132800A06F0DF0CFF9A16FE06D0DF04FFE8EB1FB
:10133800B5F8E0000CF0D6FD00200DF02DFB0223DF
:1013480084F84430F8BD002AEAD138460DF0BAF9DD
:101358000DF076FE95F82131B5F8E420033B012B1A
:101368008CBF00202820104480B20DF045FADFE73A
:10137800E06D0DF0A7F90DF063FED8E73004002109
:101388002DE9F04FC44C87B0666A94F87430327D0A
:1013980096F8201103EB8203FF2B05D120B996F8AC
:1013A80021318B4200F0F380FF200CF0E3FD676AE7
:1013B80000233A7A04938DF80930ADF80A308DF895
:1013C8001430062A00F21781DFE812F07B00E300F0
:1013D800610061001501070007000DF10A0103A86B
:1013E80006F006F8002800F0F280039D002D00F0BA
:1013F800EE800122062384F87D20BDF80A203B7286
:10140800002A5CD0E91CA4F85420022B2165B7F807
:101418000920A564ADF811206DD0053B012B69D8D2
:101428000B780322022B8DF8102000F0A380D4F84B
:10143800800011F06BFA0546002840F0C380236D48
:101448001B781B2B00F0E78000238DF8143004A8CC
:10145800F37C84F8315023B1B4F85430002B40F0B9
:101468008C80FFF7CBFEA06C0DF02CF90DF0E8FD99
:10147800B6F8E2000CF036FD01200DF08DFA0123DC
:1014880084F8873084F8443007B0BDE8F08FB7F8A7
:1014980010310DF109020DF10A01D4F88000ADF800
:1014A8000A3011F0DBF90546002800F0038101231A
:1014B800BDF80A2084F87D303B7A002AA2D1114673
:1014C800A1E7002303A80DF10A01A7F8443094F816
:1014D8007C30A7F81031ADF80A3005F089FFE0B18B
:1014E800039DD5B10122052384F87D203B72BDF808
:1014F8000A2085E701238DF81030D4F8800011F018
:1015080005FA0546002858D105F08CFF2B4680F0D7
:101518000105EDB28DF8135097E7636A93F855808B
:10152800B8F1000F58D10DF10A010DF10902D4F8F4
:10153800800011F093F9054600284DD09DF809A0C8
:10154800BAF1000F6ED1BDF80A30002B58D1012333
:10155800A5643B7284F87D300023A4F854302365D9
:10156800B7F80930ADF8113001238DF81030B8F113
:10157800000FC2D000252B4667E7FFF73FFEA06F9C
:101588000DF0A0F8A16CA06F0DF0E4FC70E73746F1
:101598000EE7424B0122D4F88000A36400238DF8A3
:1015A8001020A4F854302365B7F80930ADF811308D
:1015B80011F0ACF905460028A6D001238DF81330A8
:1015C800002342E701238DF81330236D38E740F2FA
:1015D800D3512720FEF72AFF4FF0000801220023ED
:1015E8003A722E4AADF80A30A4F854302365A26442
:1015F800B7F80930B6E740F2DD512720FEF716FFAD
:10160800002301222B80AB70032384F87D203B72DA
:10161800BDF80A20F4E607F1BA0001210CF0ECFC51
:10162800012312E70146D4F8800011F001FA11F005
:1016380003FA0368D0F804B0814653EA0B022FD1AD
:101648000023BDF80A2089F8003089F8013089F8AC
:10165800023089F8033089F8043089F8053089F8B0
:10166800063089F80730002A3FF471AF9DF8091059
:101678000029C5D0297801F00301012906D00121EC
:10168800BB75022384F87D103B72BBE6032384F804
:101698007D103B72B6E600BF30040021B40400217F
:1016A80001930EF0CFFB019B83427BEB0101C7D274
:1016B800D04693E740F2C4512720FEF7B7FE00BF9B
:1016C8002DE9F04F0023B14C8BB0656ACDE90833A2
:1016D80094F84430022B40F05982E36D03220E4601
:1016E800074693F8009005F1A80A5978134409EAC7
:1016F800020B4FEA2918A4F860206366A4F8681062
:10170800002800F0C880002940F080816B7AA28E02
:101718000133A16542F40072DBB2A28683EA990123
:1017280011F0010140F0F1802A7A002A00F0698165
:10173800032A6B7200F2B381012A00F06281B5F8C6
:10174800443008A9D4F88000A5F8463011F0A8F86C
:10175800002800F025822B6F01332B676B6F43F154
:1017680000036B670021636A297293F8A8304BB1B4
:101778006B793BB1238D1020697143F010032385E9
:10178800A36B9847A38EC9F3C00943F40063A386EB
:10179800002307932B7D002B40F0BE80AB7A03F02B
:1017A8000102914500F01781A36D002B00F0C7805E
:1017B80008F0010884F83280002E40F0F680079E79
:1017C8004FF0000994F88A100120FFF789FC804641
:1017D800002840F0D781EB7C002B40F032810020BC
:1017E80095F82021B5F8E0100CF0B0FD0020FFF7C7
:1017F800C7FDB8F1000F03D0594609A8FFF73EFD11
:10180800A38E5A0607D4A36B002140209847A38EC5
:1018180043F04003A38666B1EB882BB9636A93F85B
:10182800A830002B40F0CF80B4F809300133A4F879
:101838000930002F00F0C180B4F8053000220133D0
:1018480084F88A20A4F80530514807F05DFA089812
:1018580030B111F0F1F800220272514606F040FC56
:10186800099B33B100221A720C225146099806F0DE
:1018780005FCB9F1000F40F08380A38E1B0607D446
:10188800A36B494680209847A38E43F08003A38624
:101898000BB0BDE8F08F2B7D002B40F0BC8094F896
:1018A8008A30013384F88A30A38E43F48063A38698
:1018B80095F82131033B012B16D906F035FC98B970
:1018C800A36D002B00F0008108F0010884F8328035
:1018D800002E3FF475AF0DF09DF8A38E5B066AD419
:1018E80000264FF001098EE70CF012FB0328A36DC8
:1018F80000F09480002B00F0E78008F0010884F8DD
:101908003280002EE7D1B1465CE72B7DC9F3C009D0
:101918000797002B3FF442AFB4F86830F3B9AB7ABD
:1019280003F0010291457FF43FAF0133BBF1030F90
:10193800AB7200F0CE80A26D002A7FF439AF4FF071
:101948000009B4F86830002B14BF4FF0000808F005
:10195800010884F8328046BB079E33E70DF098FBF8
:101968000328FBD002280BD000287FF417AFAB7AEE
:1019780003F0010399457FF417AF012384F83C3045
:10198800FFF7ECFB0BB0BDE8F08F00BF300400217F
:1019980054040021002A14BF4FF0000808F0010881
:1019A80084F83280002E3FF40AAF0DF033F8079E1A
:1019B8004FF0010924E74FF00109B4F8073001336B
:1019C800A4F8073040E7B4F80530B4F8072013430B
:1019D8003FF42FAF28E7B4F86820002AA5D00BF110
:1019E800FF32012A40F285800133BBF1030FAB724D
:1019F8006FD0AB6F0133AB67EB6F43F10003EB675D
:101A0800D2E6B5F84430A5F84630ABE6E06E10F003
:101A18009EFF01467AE60DF07BFB40E7B4F868903C
:101A2800B9F11B0F94BF4FF000094FF00109002BCB
:101A38005DD008F0010884F83280002E3FF4C2AE71
:101A480049E7636A05F1800195F82A0105F1900CD0
:101A580093F8A82095F820318000B2FA82F2079115
:101A6800013B5FFA80FE5209DBB2032BD5E91C016A
:101A780000F2AB8003930B4605F18001CDE9002C01
:101A880002464FF0000C70464FF0010ECDE904CE2F
:101A98004FF0FB0CCDF808C00DF0CCF99FE6053AE5
:101AA800012A78D8B5F844300791A5F8463005F0F2
:101AB800ADFC0799002878D0238D082043F008034F
:101AC8002385A36B984746E64FF00009CDF81C9094
:101AD80037E7A38E01203F4943F480532871A3863A
:101AE800238D43F001032385A36B984781E7079370
:101AF80027E7A38E95F8149043F48053A3860CF03F
:101B080007FA032894F8883007D1B9F1000F0CBF01
:101B18001F221B22934228BF1346B4F86820A16DE8
:101B28009A421CD800293FF435AF94F8893003BB9A
:101B3800AB6F08F00108013384F83280AB67AB7AE9
:101B480003F10103AB72EB6F43F10003EB678EB354
:101B58000CF060FF594609A8FFF790FB27E794F8B7
:101B6800303043F0100384F8303000297FF420AE81
:101B7800E5E6A36B002120209847A36D002B7FF496
:101B880017AEDCE60CF046FF079610E740F6AF11FB
:101B98002720FEF74BFC40F2B4712720FEF746FCE5
:101BA80040F2D6712720FEF741FC4FF4FC61272054
:101BB800FEF73CFC94F88A100120FFF791FA814661
:101BC8000028C5D1079EB84605E640F22541062003
:101BD800FEF72CFC940400212DE9F041404C86B01E
:101BE80094F84430012B70D1666A5FFA83F8054691
:101BF8000F46337903BB337A052B30D0012F16D12A
:101C0800ADB929462846FFF76BFA80B9337D676A74
:101C1800002B3BD197F821210120B7F8E2100CF0F6
:101C280095FB002006B0BDE8F041FFF75DBB06B0AC
:101C3800BDE8F041FFF792BA238D0021042043F05C
:101C4800040331712385A36B9847636A93F8A8301E
:101C5800002BD0D0337A86F80580052BCED1238D82
:101C68000220204943F002032385A36B9847636A47
:101C780093F8A830002BC1D0236D1B78A3F1020381
:101C8800B3FA83F35B0984F82A30B7E797F8213170
:101C980006F1800C94F874209036013B97F8A84020
:101CA800DBB2003C18BF0124032B56E9060111D80A
:101CB8000094CDE9016202460120CDE90335059083
:101CC8000B4661460DF0B6F8A4E740F60E11272042
:101CD800FEF7ACFB40F225410620FEF7A7FB00BF4C
:101CE800300400218004002110B50C4C0C4A0D4929
:101CF80094F84430116023B14FF4B1712720FEF7F6
:101D080095FB03F0FF02227607F0FAF905F036F9A1
:101D1800206705F037F9A06710BD00BF3004002127
:101D2800001000211C200001074A10B592F8443029
:101D380013B10C24204610BD03F0FF04147607F0FD
:101D4800DFF9204610BD00BF300400212DE9F04323
:101D58009A4C87B0054694F844009DF838600028EE
:101D680040F02181002A18BF002900F01C81B3FA35
:101D780083F04009002B00F016812364A163E2621E
:101D880084F8300084F88A0084F83C0084F88700DE
:101D98002085A08684F8310084F8320084F87D001C
:101DA80084F82A00A0642065A4F85400E065606601
:101DB800A4F8680084F8896065620CF04FF90DF0AA
:101DC8003FF995F928010CF0ADF9D5F8D460D5F8AC
:101DD800CC000CF0ADF930460CF058FC95F8250015
:101DE8000CF0B0F9B5F8E030702B03D9B5F8E23053
:101DF800702B01D80CF07CF8636A93F8A860002E69
:101E080072D013F06BFD014695F821210120AF3106
:101E18000CF086FA6A4B18680CF03EFCAB7B243B4E
:101E2800D5E93012072BC4F88010E2667BD9EB7B2A
:101E3800243B072B77D9B5F8F230B5F8F80095F8B8
:101E48002011984228BF1846042908BF032112F020
:101E580071FA024695F8F40095F8F030904228BFE0
:101E6800104680B2984200D3C3B295F8211105F10B
:101E7800E80084F87C3012F071FF95F821112F7D6D
:101E88000329B5F8FC6008BF042112F053FA0FB912
:101E9800043080B2864228BF0646F6B284F88860CD
:101EA80006F042F9002840D1636A84F8746093F818
:101EB800A8306BBBEA7C002A3ED10120FFF760FA0C
:101EC8000023B5F8AA0095F82520A360C4E90033DB
:101ED800D5F82431E9882080618022710BB1012274
:101EE8001A6007B0BDE8F08313F0F8FC95F82021DC
:101EF800344B01463046344E33F8123003F5FA734A
:101F0800A6FB036301EB931191310CF009FA81E709
:101F18002B7D73BB0120FFF7E7F9636AD3F8E8016B
:101F28000CF038FCCCE71B239FE706F003F9B0421E
:101F380038BF3046C6B2B7E795F8206105F1800191
:101F480095F82A0105F19002013E8000F6B2C0B270
:101F5800032ED5E91C892BD801924246CDE90363AB
:101F680001264B4605960096FB2602960CF062FF6A
:101F7800A3E795F8213105F1800705F19002013BAF
:101F8800DBB2032BD5E91E0112D8019202460120CB
:101F9800CDE9026300260B46059039460090049669
:101FA8000CF048FFB6E74FF420712720FEF73EFA01
:101FB80040F225410620FEF739FA00BF300400211F
:101FC800001000210C230201D34D6210FFF7C6B8A0
:101FD800014B93F88700704730040021054B9A8E17
:101FE80012F4C06F03D093F87D0000B17047C2F3BC
:101FF8000030704730040021024B93F83500C0F3DD
:10200800C000704730040021014B93F88A007047E4
:1020180030040021D9110001C9160001E11B00019B
:10202800C511000181220B4603F8032BB0F809C043
:10203800C27AA1F803C09A70704700BF40F2BD2170
:10204800322008B5FEF7F2F990F8DE2012B902F056
:10205800FF00704710B5363882B00C4602F0E2FE39
:102068008F230420237002B010BD00BF70B5002874
:102078005DD0437A04460D46002B3CD000214089B0
:10208800FEF7CEFD002857D00021B0F8AA00FEF7D1
:10209800DDFD002855D194F8546094F8A6302BB192
:1020A80094F8A7301E43002384F8A630204602F097
:1020B800B9FEB30731D188212B4604F1090229342E
:1020C80003F8031BD2F800C0103252F80C6C10331E
:1020D80052F8080C52F8041CA24243F810CC43F8FA
:1020E8000C6C43F8080C43F8041CEBD1117800225F
:1020F8001970AA7170BD036DD0F80E20C3F8AD2019
:10210800428AA3F8B120437B026D03F0FD03003B34
:1021180018BF012382F8AC30BDE726F00406002280
:102128002046114684F8546003F0ECF8C3E740F207
:1021380006313220FEF77AF940F212313220FEF7EA
:1021480075F940F215313220FEF770F9044B002280
:102158001B68A3F8792183F87B2183F870207047E6
:10216800BC04002108B50BF0C1FA034B18700CF041
:102178002FF9032008BD00BF1000002138B5114C0D
:1021880020686C3001F0B4FF656801F061FF636896
:102198002860186858B101F089FF68B10CF092FA0C
:1021A80000200CF029FB042263681A7138BD40F244
:1021B800F5413220FEF73AF940F2F7413220FEF7B6
:1021C80035F900BFBC040021F0B54C4C002383B0A6
:1021D800064625680F466B722B6DB3F8AA2093F854
:1021E8002911D3F8C8006A8112F0F6F82368288408
:1021F8001A6DD2F8D020C3F822204FF47F42DA8437
:102208004FF6FF721A85002E4AD00121384612F087
:102218007FFB3A78D209236893F8481009B1002A5D
:1022280048D1002159611983207B082852D003F135
:102238000E0203F10D0105F07BFB002858D023683E
:102248005A7B03F11A0542F002025A73002E3BD161
:1022580003F1780002682A608288AA80186D93F9D1
:102268005810A83005F0D6FC2068254912F036FD34
:10227800236824491A6DB2F8AA00A3F8330003F1C1
:102288002A00D27D83F8352012F031FD0221206822
:1022980003F072F920686C3001F02AFF03B0F0BD3A
:1022A800A068694612F02CFAA36868461A78C2F347
:1022B8008012B0E7427902F0C002402AB1D1026828
:1022C8005A6182881A83AFE70021384612F020FB52
:1022D8002368BFE793F87E109A6FB3F87C005973B0
:1022E8000021C3F80E205882C3F81A10D983B5E725
:1022F80041F213413220FEF799F800BFBC040021D7
:10230800752000012D20000140F29B31322008B5D4
:10231800FEF78CF810B504788CB004F00F0402A90D
:10232800224602F0CFF80BF0E1F9234A042C107092
:1023380002D003200CB010BD204C0399236891F8FB
:1023480000E093F878C0E645F3D191F801E093F8FE
:1023580079C0E645EDD191F802E093F87AC0E645F8
:10236800E7D191F803E093F87BC0E645E1D191F815
:1023780004E093F87CC0E645DBD191F805C093F8FA
:102388007D108C45D5D193F87E309DF8191099426F
:10239800CFD17F280DD04FF07F0C009002A9606844
:1023A80082F800C0237C227B02F00EF803200CB0D8
:1023B80010BDFFF7A9FF00BF10000021BC040021D9
:1023C8000E4A536810B5197902290CD919790829C8
:1023D8000ED8197952690A4B92680B44BDE810402F
:1023E80052F82330184741F2BC413220FEF71EF85C
:1023F80041F2BD413220FEF719F800BFBC040021AC
:10240800FDFFFF3F38B5194D6B681B79022B28D8A3
:102418002B680446027C83F8A4201A44C168996694
:1024280092F87C2183F878214268C3F88820037ADF
:10243800022B0ED00BF012FE0CF030FA0BF0D0F994
:102448000B480CF029F90B480CF020F90A480BF05E
:102458006FFE637C23B12B685B6E0BB101221A609F
:1024680038BD40F6FC013220FDF7E0FFBC04002136
:10247800683A000155555500D6BE898E70B53A4C5C
:10248800064663681A79032A41D01A79042A3ED08D
:10249800226892F8542092073ED1A568002D4AD0B0
:1024A800236893F85430002B3BD03EB1284612F0F5
:1024B800DBFAD8B9284612F0F2FAB8B963681A7983
:1024C800022A3DD91A79082A3FD819796269274B17
:1024D80052690B4452F8233098470C2826D8636970
:1024E800DB68BDE8704053F82030184763681A79F4
:1024F800022A2FD91A79082A31D819792846626907
:102508001A4B12690B4452F823309847E5E71868CC
:1025180001F0CCFD0546C1E7186801F0C9FD054684
:10252800BCE741F2CA313220FDF780FF41F2DD31CC
:102538003220FDF77BFF41F2C4313220FDF776FFF0
:1025480041F2AA313220FDF771FF41F2AB3132205E
:10255800FDF76CFF41F24A313220FDF767FF41F287
:102568004B313220FDF762FFBC040021FDFFFF3F25
:1025780070B5154D2C6894F84830EBB16FF00043F6
:10258800D4E920129A4208BFB1F1FF3F14D00DF0F0
:102598000BFBD4E92023904299410DD32E6896F87D
:1025A800483053B905F0BEF904460DF0FDFA074B63
:1025B800E4FB0301C6E9200170BD012005F074FAAF
:1025C8000028F9D02E68EDE7BC04002140420F0036
:1025D8002DE9F04F044687B006290AD8DFE801F054
:1025E800522E0F0909090400B34D68688379002B3E
:1025F80072D10BF0EDFE032007B0BDE8F08F0BF0B1
:10260800E7FEAD4A136893F854108F07F3D050686B
:1026180081790029EFD0A94D95F900107F2900F0A4
:102628001C8202912146127B7F2442330192FF22B1
:10263800009202222C7001F01FFEDCE79E4DA27C66
:1026480029686868012A91F8483090F806A090F83F
:10265800079083F001035BD00027BB4691F854C074
:102668001CF0040600F0D78091F84B60002E5AD079
:1026780091F84C80B8F1080F5BD191F841800026A1
:1026880040466FE08C4DD5E9003093F85420570749
:102698001AD5C279002A00F0C680626893F85B10E8
:1026A80016788E4200F0328193F85620012A00F005
:1026B800518193F84C30082B03D042799A4200F0AC
:1026C80049810BF085FE68688379002B40F0AF8064
:1026D800C379002B8FD18CE72B6893F85420960789
:1026E80040F1CF80754A92F900107F2900F0B5813A
:1026F800029121462C7B42330194FF2400947F24CD
:102708001470062201F0B8FD002309202B7473E72A
:10271800A268577907F0C007A7F14007B7FA87F70B
:102728007F09BB469AE790F80580B8F1080F00F0DA
:10273800DD804046049305F007F8049B0590BBF143
:10274800000F40F0388129685E4691F854C091F82E
:1027580041800CF00402404692B3059A43EA020B0A
:102768005FFA8BF3626891F85BC092F800E0E64587
:1027780000F0F3804FF0000B6A685279082A00F0E5
:10278800308191F84CC0ACEB0202B2FA82F25209E5
:102798000492002E00F0B680B9F1000F0BD091F82A
:1027A8005630012B00F0D6804E4623B9049B53EADD
:1027B8000B0B40F0CF800BF00BFE2B6893F854C046
:1027C8001CF0030F3FF417AF0BF002FEBAF1000F35
:1027D8003FF411AF2868A36800F14201A27C90F889
:1027E800410011F0DEFC16B9002800F01481334EC8
:1027F80096F900307F2B00F03081029321462B7B25
:102808007F240122CDE90083D5E9003034704233BA
:1028180001F032FDEFE690F80580B8F1080F88D195
:1028280091F84180CCE78379002B3FF4E2AE2B6826
:1028380093F85420960743D4D0077FF5DCAE5107B0
:1028480000F1E6801D4B93F900207F2A00F00581F6
:102858007F2002922A7B21461870FF202B68019264
:10286800002200904233686801F006FD03206B687F
:10287800DA79002A7FF4C0AE9B79002B7FF4BCAED6
:10288800B7E6D1077FF5B5AE530700F1BE800B4B15
:1028980093F900207F2A00F0E0807F2002922146F1
:1028A8002A7B1870FF24D5E90030019206224233B2
:1028B800009401F0E1FC9EE6BC0400211000002118
:1028C800674A92F900107F2900F0C78002912146DB
:1028D8002C7B42330194FF2400947F24147000223F
:1028E80001F0CAFC012309202B74C0E7626891F843
:1028F8005B0092F800C091F8418084452CD0B34623
:1029080040460496002B6FD1002654E7567893F87A
:102918005C108E427FF4C8AE967893F85D108E42B4
:102928007FF4C2AED67893F85E108E427FF4BCAEC8
:10293800167993F85F108E427FF4B6AE517993F80A
:10294800602091427FF4B0AE617C93F85A209142A6
:102958007FF4AAAE0A204FE6404692F801E091F8CB
:102968005CC0E6457FF406AF92F802E091F85DC0DE
:10297800E6457FF4FFAE92F803E091F85EC0E645C5
:102988007FF4F8AE92F804E091F85FC0E6457FF472
:10299800F1AE92F805C091F8602094457FF4EAAE54
:1029A80094F811B091F85A20ABEB0202D2F1000B67
:1029B8004BEB020BE0E6A1684046049305F0A8F84B
:1029C80029680646049B91F854C091F841000CF020
:1029D8000402002E3CD040F00208002A7FF4BDAE6D
:1029E800EEE600220492D4E64231A368A27C11F0FC
:1029F800D8FB002888D0B9F1000F85D02B6893F850
:102A08005630012BA6D00026CFE60BF0E1FC3EE7BE
:102A18000BF0DEFC16E72B6893F85520023A012AE2
:102A28003FF6E9AD002F3FF4E6AD0D4E96F90020D4
:102A38007F2A12D0029221462A7B7F24686842337B
:102A48000192FE2200920122347001F015FCD2E5B9
:102A58008046002A7FF481AEB2E6FFF755FC00BF3E
:102A6800100000212DE9F843664C002207468946EC
:102A7800A368D4F8008018461A800BF059FE002885
:102A880000F0A380A568032F06462B7800F0A980E4
:102A980023F02F03222243EA49136A7043F0050307
:102AA8002B7023681A6DD2F8CC20C5F80F201A6D48
:102AB800D2F8D430EB74190A1B0C29756B7592F88F
:102AC8002A01B2F8DC10D2F8D830002840F0918002
:102AD8004D48A0FB01C1A0FB0303890A9B0AEB75C3
:102AE800C3F30723A9752B7692F82911D2F8C800E9
:102AF80011F072FC6876000AA8762068A568036D54
:102B080095F82420D3F8D01022F01F02C5F81B1026
:102B18009969C5F81F101B7F85F82330036D93F85A
:102B2800233003F01F03134385F8243004F0A2FA7E
:102B380095F8243003F01F0343EA401385F8243046
:102B4800A568D8F878302846C5F80930B8F87C3038
:102B5800A5F80D3098F87E1011F0E2FD236893F87F
:102B6800482003F1420993F84180AAB393F854200E
:102B7800520733D593F84B2082B393F84C0005F0F5
:102B880001F8054640B34FF001082B684146A0689C
:102B9800C0F80330AB88A0F8073011F0B8FD1B4B24
:102BA800D3F804317BB9052F13D12368304629683F
:102BB8001A6DC2F8B410A988A2F8B8101B6D83F872
:102BC800B380BDE8F8830BF003FC0026032005F072
:102BD80075FA3046BDE8F8834D46D6E763685879FC
:102BE800CDE723F00F0343F003032B700C236B7026
:102BF800A7E70748A0FB01C1A0FB0330C1F34711B9
:102C080043096CE7BC0400215917B7D10080004183
:102C18001F85EB5110B50A4C0AF068FD094A637B21
:102C280010701BB90BF0D4FB032010BD0BF036FE5F
:102C38000AF0D6FD002363730BF0CAFB032010BD16
:102C4800BC0400211000002110B50B4C637B63B954
:102C5800A1680020FFF7B8FA23680022A3F87921B9
:102C680083F87B2183F8702010BD0BF017FE0AF063
:102C7800B7FD00236373EBE7BC04002110B50E4CCD
:102C8800637B8BB9206801216268002311710246B9
:102C9800A0F879316C3082F87B3101F029FA20688C
:102CA800BDE8104002F046BB0BF0F8FD0AF098FDB5
:102CB80000236373E6E700BFBC04002107292DE960
:102CC800F04F044687B00D461646406852D100289A
:102CD80008BF002A0CBF4FF0010A4FF0000A72D05B
:102CE800002800F0D580627C012A00F0B180AB4F4B
:102CF8007B685879082848D00DF10F0104AA04F020
:102D080017FE002800F05E8104A99DF80F0012F05C
:102D18009AFD8246D7E9000890F8543013F0030270
:102D280040F088805B0788F8062043D4002388F8A1
:102D380007309B4B1B6833B131462046984788F8CB
:102D48000800D7F80480636843B1617C3A6882F868
:102D58007E10196891679B88A2F87C3098F8083033
:102D6800002B00F03481A06808B1072D4FD007B0C0
:102D7800BDE8F08F002800F08880627C874F012A28
:102D880079684FD048790828B6D16168607C12F01C
:102D98005AFD7A68824661680532607C04F0FEFC60
:102DA800D7F8048003460028B4D1A8F8060088F8AC
:102DB8000800D8E7062D90F84B9000F2B28049EA57
:102DC8000A00C3B2B3E7754FD7E9001091F8543041
:102DD80013F0030218BF012213F00403827105D017
:102DE8002378A3F10103B3FA83F35B09C37191F864
:102DF8009430002BBBD03B68D3F89000503012F0D1
:102E08002CFD0028B3D17B6801221A72AFE798F82D
:102E180005100829ABD0002BA9D004F0BFFD012371
:102E2800FB73A4E7437903F0C003402BAAD17B7B53
:102E3800FBB9A7E7062D90F84A904FD849EA0A0946
:102E48005A0788F806907FF571AF90F84B90B6E76F
:102E5800427902F0C002402A7FF449AF4F4F7A7B93
:102E6800002A3FF445AF26B93A6892F8781101294B
:102E780060D0D7F8048011F0D8F97B6888F805008D
:102E8800587901233873BB7334E78246434F41E7CF
:102E9800424FD7E9000890F854309A0745D1D146F7
:102EA80013F0040388F806903FF441AF90F84B9074
:102EB800311E98F807B018BF0121BBF1010F02D0ED
:102EC80000297FF433AF6368002B7FF478AF002EBE
:102ED8003DD16378D9063AD5012328E7082D03D9CF
:102EE800002388F8063021E798F806B0311E18BF8D
:102EF8000121BBF1010F0DD061B14FF0000913F0B2
:102F0800040388F806903FF412AF90F84B9098F8B5
:102F180007B0D2E762689AB149EA0A095FFA89F903
:102F2800BEE7082D3FF602AFC2E790F84A9098F83E
:102F380006B0DBE704F014FD7873002899D1D7E6D2
:102F4800A6B96278D20611D54FF00109D7E7D8F8AB
:102F5800000001F0B1FA10B1BBF1000F02D1B9F1D4
:102F6800000F14D0D7F804800123E0E6D8F8000059
:102F7800019101F0A1FA1BEA000001991CD1B9F1F5
:102F8800000F0FD0D7E9000890F85430B7E704F0E5
:102F9800FFFBD7F804800346C9E600BFBC04002144
:102FA80004100021019104F0F3FB81460199D7E94F
:102FB800000890F85430A2E78146D7E9000890F855
:102FC80054309CE740F6A5313220FDF72FFAB8F8C7
:102FD8000630003B18BF0123C5E600BF70B5194E87
:102FE8008AB005460AF082FB3368174A93F85430D2
:102FF800107013F0060F16D12C782846694604F095
:103008000F04224601F05EFA214600226846FFF7C7
:1030180055FE21466846FFF7DBFA737B044643B941
:1030280020460AB070BD0122962100200BF08EF9CF
:10303800E2E70BF033FC0AF0D3FB0023204673735E
:103048000AB070BDBC0400211000002110B50F4C5F
:10305800606801F0C5F8637B8BB92068012162685C
:10306800002311710246A0F879316C3082F87B3167
:1030780001F03EF82068BDE8104002F05BB90BF0A3
:103088000DFC0AF0ADFB00236373E6E7BC040021E6
:1030980010B500210320164CFFF7E4FC20B10321F2
:1030A800206801F04BFF98B9637BCBB920680121F8
:1030B8006268002311710246A0F879316C3082F8F9
:1030C8007B3101F015F82068BDE8104002F032B9F4
:1030D800012108460BF00CFC092263681A7110BD27
:1030E8000BF0DCFB0AF07CFB00236373DEE700BF18
:1030F800BC04002138B5224C6368186800F0D6FF7C
:10310800002837D063680A22054600211A71206812
:1031180002F032FA22682B780520126DC3F34013AF
:10312800D57D1D402946FFF79DFC40B1042120684C
:1031380001F004FF18B123681B6DDD7538BD637B92
:103148008BB9206801216268002311710246A0F83A
:1031580079316C3082F87B3100F0CAFF2068BDE815
:10316800384002F0E7B80BF099FB0AF039FB00236E
:103178006373E6E740F261513220FDF757F900BF6B
:10318800BC04002110B501291D4C636810D178B921
:103198001A79082A2AD91A790C2A2CD81979626935
:1031A800184B52680B44BDE8104052F823301847BA
:1031B800184601F015F8637B8BB920680121626815
:1031C800002311710246A0F879316C3082F87B3106
:1031D80000F08EFF2068BDE8104002F0ABB80BF09D
:1031E8005DFB0AF0FDFA00236373E6E741F28C41C8
:1031F8003220FDF71BF941F28D413220FDF716F917
:10320800BC040021F7FFFF3FF0B55A4C83B020689B
:103218006C3000F06DFF656800F01AFF6368286085
:103228001868002800F09B8000F040FF0546002841
:1032380000F09A80236893F8A630002B47D1D4E990
:10324800000290F8A430034493F87C7180F87871F8
:10325800137913B11379012B4AD1474A90F8A53055
:10326800D05C0AF06FFF236893F8A420134493F806
:103278007C61022E3AD04DD8012E4ED100F0E2FEEC
:1032880031460AF077FE28460BF01CFA3146012039
:103298000AF066FF012F31D1E81C04F08FFB607340
:1032A80028B140250AF080FA28460BF0EBFA62684C
:1032B800082100232068517121730321D3801372E0
:1032C800E38180F895302374117103B0F0BD236851
:1032D80093F8542093F8A700196D0243C3F810110E
:1032E80083F85420002283F8A620A8E70D20C7E71A
:1032F800002101F023FEA8B12068AEE7681D04F0A4
:103308005DFB60730028D2D0033F012F8CBF50258E
:103318005525C7E7F31E012BB0D940F2F7713220CB
:10332800FDF784F8637B93B9206801216268002364
:1033380011710246A0F879316C3082F87B3100F0C7
:10334800D7FE206803B0BDE8F04001F0F3BF01905C
:103358000BF0A4FA0AF044FA01986073E4E740F22B
:1033680052413220FDF762F840F254413220FDF715
:103378005DF800BFBC040021B420020108B50AF0C2
:10338800B5F9044B18700BF023F8BDE80840FFF7B7
:103398003BBF00BF1000002110B50C4C0AF0A6F985
:1033A8000B4A637B10702BB90BF012F8BDE8104084
:1033B800FFF72ABF0BF072FA0AF012FA00236373C0
:1033C8000BF006F8BDE81040FFF71EBFBC04002153
:1033D8001000002110B50446FFF714F8237A032BD8
:1033E80034D01D4A12683BBB92F8A5301B49013303
:1033F80092F84900A1FB034C0CF4FF7404EB5C0445
:103408001B1B40FA03F4E40713D40133A1FB034C5C
:103418002CF0010404EB5C041B1B40FA03F4E007E6
:1034280007D40133A1FB034121F0010404EB51014E
:103438005B1ADBB282F8A53092F958000AF072FEE6
:10344800FFF7E2FEBDE81040FFF792B840F62E11F4
:103458003220FCF7EBFF00BFBC040021ABAAAAAAEC
:1034680090F83E00003818BF01207047007A0038F5
:1034780018BF0120704700BF036D10B58BB1022241
:10348800FF2104464272B3F8AA204FF6FF7380F872
:10349800271003850549428111F020FC002323658C
:1034A80010BD40F261313220FCF7C0FF75200001E9
:1034B80038B5012105460020FDF7B2FB20B30446CC
:1034C80001F0A6FC02E094F870301BB194F870305B
:1034D800012BF8D13F22002120460EF0D5FD002314
:1034E80040F20111072284F8543084F8A530A4F87A
:1034F8004A1084F8585084F84920636684F8943058
:10350800C4F8903084F8A63001210846FDF788FBFE
:10351800044618B301F07CFC02E094F870301BB14B
:1035280094F87030012BF8D13F22002120460EF08C
:10353800ABFD002340F20111072284F8543084F8CF
:10354800A530A4F84A1084F8585084F849206366D6
:1035580084F89430C4F8903084F8A630BDE8384038
:1035680000F066BDF8B506461D4F03F007FD03469B
:1035780001210020BB60FDF717FB30B34FF4C07288
:10358800002104460EF080FD01210846FDF70CFBE2
:103598007F69054680B14FF4C07200210EF074FDBA
:1035A800C7B13046FFF784FF204601F027FC2846C4
:1035B800BDE8F84001F022BC67B13046FFF778FF5C
:1035C8002046BDE8F84001F019BC40F685013220DC
:1035D800FCF72CFF40F68F013220FCF727FF00BFD5
:1035E800BC040021014B024A5A617047BC04002107
:1035F800CC3A0001036810B54BB1074A03F16C04DB
:103608005169C2E900340B68BDE81040184740F61C
:1036180077113220FCF70AFFBC04002110B50F4CCB
:10362800606800F0DDFD637B8BB92068012162686A
:10363800002311710246A0F879316C3082F87B3191
:1036480000F056FD2068BDE8104001F073BE0BF095
:1036580025F90AF0C5F800236373E6E7BC040021E6
:1036680080F84910704700BF11F001031FD04FF0D8
:10367800010C0222634680F87CC111F0020F0ED0C3
:1036880000EB030C490700B54FF0020E8CF87CE103
:1036980003D51044032380F87C315DF804FB4A0706
:1036A80004D51844032380F87C3170477047012201
:1036B800E3E700BF80F85710704700BF38B590F8AF
:1036C80040C0ACF1020EBEF1010F98BF00290CBF3B
:1036D8000124002408D00CF0FD000038BDE8384073
:1036E80018BF012003F0DABE02F0FD0205461946B4
:1036F800101E18BF012010F08EFD082801D02046AA
:1037080038BD95F840C0E6E790F8400000F0FD00AD
:10371800003818BF012003F0C1BE00BF90F8A630E2
:1037280013BB10B5044603F0FF0094F85430022B85
:1037380007D0012B08BF04290CBF0120002002D0AC
:1037480010BD0429FCD1D4F810317BB9216D91B199
:1037580004F1E80001F04EFC042384F8A730FF23AD
:1037680084F8A630012010BD0020704740F6F811FB
:103778003220FCF75BFE40F6F9113220FCF756FECA
:1037880080F84010704700BF38B5044690F84000F4
:1037980000F0FD0004F14201003818BF012084F850
:1037A800410003F061FE94F84030023BDBB2012B8C
:1037B80094BF0123002384F8483000D938BD04F0B1
:1037C800B1F805460CF0F0F9094BE5FB030194F854
:1037D8004830C4E92001002BF0D0002004F064F93F
:1037E8000028EBD140F621213220FCF71FFE00BF54
:1037F80040420F00B1F1000C4FF0080110B504462B
:103808000CBF0120002084F856C084F84B0084F8CF
:103818004C1009D102F0FD021946101E18BF0120F4
:1038280010F0F9FC84F84C0010BD00BF08B5B2B127
:1038380080F85A10D2F800C0036DC0F85BC090F849
:1038480041109288A0F85F2083F8B310D0F8422086
:10385800C3F8B420B0F84620A3F8B82008BD40F655
:103868003F213220FCF7E2FDF0B5D0F8C8409DF8C2
:1038780014E0944203D190F840208A4201D00020FD
:10388800F0BD1EF0020190F8455123D00024A44653
:103898002146224611E0314300EB820253F82C60A6
:1038A8000CF101070134D2F8CC205FFA87FC2A32E8
:1038B800B242E4D1E2B2AA4226D8861896F87C61D0
:1038C800F71E012FE7D80CF1010C41F004015FFA53
:1038D8008CFCE1E70E460A468418013694F87C41D0
:1038E800E71E012F53F8227088BF214300EB8204A2
:1038F80098BF41F00401F2B2D4F8CC4004F12A0C8C
:103908006745BCD1AA42E7D90EF00500401AB0FAC3
:1039180080F04009F0BD00BF90F854305A070ED42B
:1039280013F0030301D11846704790F8550000F0D2
:10393800FD00A0F10100B0FA80F04009704790F84E
:103948005600A0F10100B0FA80F04009704700BFAE
:10395800012938B5044610D094F8543004F16C05A8
:103968009B071AD1284600F0C3FB0023A4F879313D
:1039780084F87B3184F8703038BD0A4D6B7B002B9E
:10398800EAD00AF08BFF09F02BFF00236B7304F1D8
:103998006C0594F854309B07E4D0284600F020FCCE
:1039A800E0E700BFBC040021A03010F091B900BFCF
:1039B8000149363011F095B95120000110B50121A7
:1039C80004460020FDF72CF928B36278034680F8F6
:1039D8005420227812F0010103D00120014683F817
:1039E8007C01520703D51944032281F87C21A2786F
:1039F80083F84020E17801F0FD0283F85510B2FA0F
:103A080082F2520983F84A20227983F849206279A0
:103A180083F8572010BD40F6CB213220FCF706FD75
:103A280010B504466C3000F0DBFB0023A4F87931B4
:103A380084F87B3184F8703010BD00BF08B50121CF
:103A48000020FDF7EDF828B190F89400003818BF71
:103A5800012008BD40F64A313220FCF7E7FC00BFE0
:103A6800C9230001852400018D3100015530000172
:103A780085210001512C0001A1330001853300018B
:103A880055210001852C000145200001113200015B
:103A98004520000145200001452000014520000186
:103AA8004520000199300001FD300001452000014A
:103AB80045200001E52F00011D2300011D2C0001F8
:103AC8006D210001DD330001783A0001803A0001E0
:103AD800883A0001BC3A0001C43A00012DE9F047D8
:103AE80005468CB00E4600200121FDF799F8002804
:103AF80000F074820446A83001F09EF9002846D0F0
:103B080094F85430042B42D0AF6A002F00F0538150
:103B1800BB4B9F4263D0043B9F4260D003F03CFA0A
:103B280007F13B08814602A9404600F071FDEB7A97
:103B3800B9F1000F00F0BE80D80606F10D0100F1C2
:103B4800F381002F00F04F829DF80830022B00F01F
:103B58004A8295F83230E522404610F01CFF95F86D
:103B6800323004464046234485F8323010F00BFFCB
:103B780095F83280A8EB0008B8FA88F84FEA581888
:103B8800B9F1000F31D104F11803DBB2A1E02046EE
:103B9800FFF766FC0028B7D19A4C04F1080604F137
:103BA8000C070023AA6A002A00F03081A96A0A6873
:103BB800B142AA620B704B708B70CB70F2D0B942D5
:103BC800F0D020680FF019F8231DD3E84F3F0133D8
:103BD800211DDBB2C1E8423F002AF5D1E1E703F03D
:103BE800DBF98046002870D00024EA7AD30640F139
:103BF800FA815007AB7A697B03D5EA7EFE2A00F08A
:103C0800718104F10A02F370717102FB03F302334C
:103C180073703E2333700223B370D5F80E30C6F8A4
:103C280006306B8A3473344473812B7E6373EB7A6A
:103C380013F0080100F0FE80724C042304F1080917
:103C480033714F4578D13379022262F34613AA6A59
:103C580033716AB1EFF3108272B6AB6A1968A96260
:103C6800002A00F0C28000221A705A709A70DA7026
:103C7800A5F1080120680EF0C0FF231DD3E84F3FCF
:103C88000133211DDBB2C1E8423F002AF5D10227EA
:103C98004FF004088DF804808DF805709DF8042015
:103CA80000209DF8053062F3070063F30F200CB085
:103CB800BDE8F087DA0606F11C0100F13E8127B164
:103CC8009DF80830022B7FF444AF182300244FF0EE
:103CD80001088E223270AA7A02FB03F3F2700233D3
:103CE8007370D5F80B20D5F80F30D5F81300D5F838
:103CF80017107260B360F0603161D5F81B20D5F8F9
:103D08001F307261B36195F814A095F8159003F00F
:103D180081F90AF1FF338A05DBB252D5032B00F291
:103D2800668186F80DA0B9F1000F60D1F476354CA4
:103D380004F108094F4586D004F10C0A574500F0F4
:103D48008280002F00F0A780B8F1000F2AD0AB6A5C
:103D580063B1EFF3108272B6AB6A1968A96202B94F
:103D680062B600221A705A709A70DA703946206862
:103D78000EF043FF231DD3E84F3F0133211DDBB273
:103D8800C1E8423F002AF5D1AB6A85F832204B459D
:103D980000F0DD80534500F0FE809DF80830022BCE
:103DA80000F0BB803379012262F346133371012797
:103DB8004FF004086EE703F0EFF805F13308814689
:103DC800B1E6032B00F21C810F4AD35C7373B9F17F
:103DD800000FABD009F1FF395FFA89F9B9F1030F88
:103DE80000F20E8112F8099006E062B63BE709F18D
:103DF800FF33032B00F2FB8086F80E9096E700BF96
:103E0800E0040021D4040021B8200201A5F1080132
:103E180020680EF0F2FE231DD3E84F3F0133211D29
:103E2800DBB2C1E8423F002AF5D14FF40073ADF888
:103E3800043033E703F00302032A49D0590749D570
:103E48000123337173E7AB6A63B1EFF3108272B683
:103E5800AB6A1968A96202B962B600221A705A7070
:103E68009A70DA706B7D83BB32794FF0040863F384
:103E780046123271A5F1080120680EF0BEFE231D1E
:103E8800D3E84F3F0133211DDBB2C1E8423F002A8E
:103E9800F5D10227FEE695F80B8018F010083FF4DC
:103EA800F9AE3379A5F10801206867F34613337139
:103EB8000EF0A3FE231DD3E84F3F0133211DDBB2D3
:103EC800C1E8423F002AF5D1E1E64FF00008D1E70A
:103ED80031712CE7022A25D0002A40F08D80032377
:103EE800337124E7F3701B017171023373703E2341
:103EF80033700B23B37001233371D5F80E30C6F835
:103F080006306B8A32737381EB69C6F80D302B8CDF
:103F1800A6F811302B7EF37409E7337923F0680390
:103F2800337144E7327102E79DF818400846059955
:103F3800C84622460EF054F957E69DF81840084640
:103F480005994FF0010822460EF04AF91BE633792D
:103F5800022262F34613AA6A337162B1EFF3108248
:103F680072B6AB6A1968A96202B962B600221A7001
:103F78005A709A70DA70A5F1080120680EF03DFEBB
:103F8800231DD3E84F3F0133211DDBB2C1E8423F77
:103F9800002AF5D17BE6337962F34613AA6A3371B6
:103FA80062B1EFF3108272B6AB6A1968A96202B9FE
:103FB80062B600221A705A709A70DA70A5F1080178
:103FC80020680EF01AFE231DD3E84F3F0133211D50
:103FD800DBB2C1E8423F002AF5D158E64FF4F1714F
:103FE8003320FCF723FA5B213320FCF71FFA4FF448
:103FF800EA713320FCF71AFAA4213320FCF716FAE9
:104008004FF43F710620FCF711FA00BF343270B547
:10401800044692B21E460D460EF0B7FD24B1034B7E
:104028001C601D745E741D7170BD00BFD404002136
:1040380010B5034C20680EF0CAFD237C237110BD17
:10404800D4040021014B587C704700BFD4040021E0
:1040580038B5154C20680EF0C0FD00B30546231D89
:10406800D3E84F3F013B221DDBB2C2E8413F0029A4
:10407800F5D105F108033422012418460EF004F89E
:10408800EA7C0346FF2147F6FF7064F34612697520
:10409800E883184685F82310EA74ED6238BD40F2CB
:1040A80057113320FCF7C2F9D4040021333070478C
:1040B80038B50446406A08B13B3038BD0B4D286816
:1040C8000EF08BFD606260B12B1DD3E84F3F013BC2
:1040D800291DDBB2C1E8423F002AF5D1606A3B30B6
:1040E80038BD4FF4B8713320FCF7A0F9D40400218F
:1040F80038B503684BB39A6A52BB596A054629B367
:1041080001F10800154C8342206808BF2A600EF0B0
:1041180074FD231DD3E84F3F0133211DDBB2C1E8F5
:10412800423F002AF5D12B687BB1A3F10801206832
:104138000EF063FD231DD3E84F3F0133211DDBB291
:10414800C1E8423F002AF5D12A6038BD034CECE7AC
:1041580040F28D113320FCF769F900BFD404002127
:1041680070B505680646F5B11B49284610F0C2FD32
:104178001A4C0023E360EFF3108272B6AB6A23B3E4
:10418800E96A04F10C030B60EB6202B962B63368AA
:10419800596A29B101F10805AB421AD100236B62B3
:1041A8000023336070BD696A0029F9D00B4C206880
:1041B8000EF023FD231DD3E84F3F0133211DDBB251
:1041C800C1E8423F002AF5D1E8E704F10C03AB62ED
:1041D800DAE71D46EBE700BFE53A0001D404002109
:1041E80070B50668002E3CD0716A0546002939D0A2
:1041F80001F108031E4C9E420DD020680EF0FDFC14
:10420800231DD3E84F3F0133211DDBB2C1E8423FF4
:10421800002AF5D12B68002272625A7D8AB10022E9
:10422800A260EFF3108172B69A6AF2B1D86A114AA5
:104238000260DA6201B962B62846BDE87040FFF74D
:104248008FBFA3F1080120680EF0D7FC231DD3E827
:104258004F3F0133211DDBB2C1E8423F002AF5D1AF
:104268002A6070BD3346024CD7E7024A9A62E0E7FB
:10427800D4040021DC0400212DE9F843504D0F46F9
:10428800002604682979984606609DF820909DF8D4
:1042980024009DF9283081B9A4F1080128680EF09E
:1042A800ACFC2B1DD3E84F3F0133291DDBB2C1E81D
:1042B800423F002AF5D1BDE8F8830121C4F809601E
:1042C800C4F80D60C4F81160C4F81560C4F819602A
:1042D800C4F81D60A4F82160A172062A66D8DFE838
:1042E80002F02B3239653E650400E27A22F01202B0
:1042F80042F01202E27223760123082804F10E022A
:10430800237547F6FF73E38230D004F10D0103F003
:104318000FFB00284FD0637B43F002036373E37AFB
:104328005B072ED4FF23E37600232372254920461A
:10433800BDE8F84310F0D5BCE27A22F0130242F04F
:104348001302E272D7E7E27A22F0150242F0150270
:10435800E272D0E7E27A42F01002E272CBE7E27A48
:1043680022F01A0242F01A02E272C4E77B7C6373FD
:104378007B681968C4F80E109B889380E37A5B0702
:10438800D0D5A9F1020304F11C02012B07D9BB689F
:104398001968E1619B88938084F81B90C4E7D8F87A
:1043A8000030E361B8F804309380F5E740F2464105
:1043B8003320FCF73BF8C3213320FCF737F800BF64
:1043C800D4040021E53A0001F8B5394D84460026A9
:1043D80010462A790F46DCF800409DF91810CCF8F1
:1043E80000607AB9A4F1080128680EF006FC2B1DBC
:1043F800D3E84F3F0133291DDBB2C1E8423F002A11
:10440800F5D1F8BDC4F8096041F60125C4F8156076
:104418000122217645EA0325618941F6FF33C4F874
:104428001160082821F4DF5103EA0503227547F6D5
:10443800FF7221F01F01C4F80D60E28204F10E0240
:1044480043EA0103C4F81960C4F81D60A4F82160A8
:10445800638115D004F10D0103F06AFA18B3637B88
:1044680043F002036373E37A5B0714D4FF23E37614
:10447800002323720F492046BDE8F84010F031BCF4
:104488007B7C63737B681968C4F80E109B889380E3
:10449800E37A5B07EAD5BB68FF221968E1619B886C
:1044A800E2762384E4E7C3213320FBF7BFFF00BF94
:1044B800D4040021E53A000118B1407BFF3818BF49
:1044C8000120704770B5037816460C460546C3F3BD
:1044D80080134B7410F02BF9062EA07424D80123F6
:1044E80003FA06F212F0550F11D0E91C002263708E
:1044F800C4E901126B78063B13F0FF0303D11D4694
:104508002374E56070BD09352374E56070BD9E4273
:104518000AD10322AB1809356270C4E901350023BA
:104528001D462374E56070BD00236370C4E9013340
:10453800F5E700BF38B50C46C17811F03F0160D0EF
:1045480003780546C3F38013637410F0F0F8A07481
:104558002B796370E878830923702B7913F00101B4
:1045680046D14FF0050C4FF00B0E6246616013F018
:10457800020102D005EB0C017246A160590701D572
:104588000132D2B213F0080104D002F1020CA918CA
:104598005FFA8CF2616113F0100104D002F1030C90
:1045A800A9185FFA8CF2A16113F0200104D002F17E
:1045B800120CA9185FFA8CF213F04003E16102D0E3
:1045C800AB180132D2B200F03F002362031D9B1AE0
:1045D80013F0FF0114BFAB180B4663626B78013B05
:1045E8001B1ADBB2237453B10A441544E56038BD85
:1045F8004FF00B0C691D4FF0110E6246B6E7E360F1
:1046080038BD20462822BDE838400DF03DBD00BF2A
:1046180070B5037803F00F06072E2BD0C3F3801371
:104628000C4605464B7410F082F80122A07402FA79
:1046380006F313F055030CD00023E91C6270C4E99B
:1046480001136B78063BDBB223748BB10935E56047
:1046580070BD964208D103212374E3606A180935B6
:104668006170C4E9012570BD63702374C4E9013326
:10467800E36070BDBDE87040FFF75CBFD0F8101173
:10468800F0B5D0F8C86090F8455189B100210C46C2
:104698000B4600EB83030131D3F8CC20CBB22A328E
:1046A800AB421444F5D9A6420CBF02200120F0BD4C
:1046B8008C460F4600EB81010CF1010CD1F8CC407F
:1046C8005FFA8CF104F12A0EA9427744F2D9072146
:1046D800BE42A6FB011422D0D0F8C070C919D0F888
:1046E800C47044EB0704D0F8CC701DB3D0F8D0C028
:1046F800012D674407F1540703D0D0F8D4002A30BD
:104708000744BE4205D08A4273EB040416D3012045
:10471800F0BD8A4273EB040410D20320F0BDD0F838
:10472800B070C919D0F8B47044EB0704D0F8CC7055
:10473800002DDBD12A37BE42E5D1EAE70220F0BDE1
:1047480040F28A31212008B5FBF770FE38B50446DF
:10475800FF2380F8153100F58C7528460BF0DCFA3C
:10476800284604F5A4750BF0EBFA28460BF0D4FAAA
:1047780028460BF0E5FA00212046FFF7E9F894F8FF
:1047880016313BB1D4F8083153B104F1E80004F014
:1047980029FC09E0D4F8100110B1D4F808319BB114
:1047A80004F1E80004F0AEFB002384F8153194F816
:1047B800160110F0FF0018BF0C2084F81631C4F859
:1047C800103184F8143138BD00F5EC7004F09AFB10
:1047D800E6E700BF022910B52AD013D8012934D141
:1047E800044608460AF078FA4AF2A133194A034403
:1047F800D4F81011A2FB0320800900F5257001B13F
:10480800400010BDCB1E012B1FD840F2DA3340F216
:10481800AC740846032918BF1C460AF05DFA4AF230
:10482800A1330C4A0344A2FB032304EB931010BDED
:1048380008460AF051FA4AF2A133064A0344A2FB99
:104848000320800900F5BE7010BD40F217119E20AC
:10485800FBF7ECFDD34D62102DE9F04104460BF057
:10486800A3F905460E46D4F81021D4F8C8E094F808
:104878004571002A46D04FF0000C6046634604EBB1
:1048880083030CF1010CD3F8CC205FFA8CF32A32A5
:10489800BB421044F3D986450CBF0227012738468E
:1048A8000BF074FA3F2829D9411CD4E9363259D083
:1048B800C118914228BFD01AD4F8A830D4F8AC2037
:1048C8005B1B62EB0602012B72F1000151DB002138
:1048D800984291415EDA41F28836864228BF064600
:1048E800C5F190050BF060F90544B54206D8394684
:1048F80030460BF077FA0546002852D100252846A5
:10490800BDE8F0811046134604EB83030132D3F867
:10491800CC10D3B22A31BB420844F5D907238645C7
:10492800D4E92C1CAEFB03382ED0D4F8C0209B1839
:10493800D4F8C42048EB0208D4F8CC20DFB1D4F86E
:10494800D000012F024402F1540203D0D4F8D4005D
:104958002A300244964511D099427CEB080817D3B7
:1049680001279CE7D61A41F288339E4228BF1E468B
:10497800B6E70026B4E72A329645EDD199427CEB9A
:10498800080805D203278AE7CB184CEB0808D3E7B9
:10499800022784E741F28832934228BF13461E4615
:1049A8009EE70BF007F9D4F8E020D4F8D830B01817
:1049B800D4F8DC203344C4F8E0009342C4F8D8307B
:1049C80003D1D4E93A23C4E930230BF0EFF896E792
:1049D8002DE9F04F04468BB0052900F26C81DFE821
:1049E80011F02100090032008F006A010C002046F6
:1049F800FEF7DEFF0BB0BDE8F08F90F8153163B914
:104A0800B0F87A31C3F30C03002B00F04B8190F817
:104A18007831033B012B40F26B810BB0BDE8F04FBE
:104A2800FEF7FCBD90F8153103F0FF05002B00F0F0
:104A3800EF800121FEF78CFF09F058FD0BB0BDE8AF
:104A4800F04F0CF0C9B9B0F87A31C3F30C03002B5E
:104A580040F02E810BF0A8F8D4F8CC7094F84551AA
:104A68008B46804607F12A0155B1012304EB8302E6
:104A78000133D2F8CC20DBB22A32AB421144F5D94B
:104A8800D4F8C8508D4240D16FF00043D4E92A12BF
:104A98009A4208BFB1F1FF3F00F0978194F8443182
:104AA80020460026234493F87C11FFF793FE18F55F
:104AB8008E730546059008934BF1000304A88DF802
:104AC8001060099340F20243ADF818300CF014FA64
:104AD800002800F08B81089AD4F8A83009999B1A0D
:104AE800D4F8AC2062EB01025B1B62F10002002AE1
:104AF80080F26B810123374645465E4601931FE0ED
:104B08000BB0BDE8F04F09F0A1BFD4E93A264FF049
:104B18000009A8EB02035219B3FBF5F305FB03F3F5
:104B280046F100069B18A3EB080246F10006B2F511
:104B38008E7F80F01C81ED18CDF8049046F10006B8
:104B480094F87C112046FFF745FE8146D4E92AA156
:104B5800BAEB050361EB0602012B72F10000C0F20B
:104B68009F8000209F42904100DB1F46D4F8CC3044
:104B78002A462046C4F8D8909F420393029128BF42
:104B88001F460423C4E92E568DF819303346C4F85D
:104B9800DC70FFF773FD019B8DF81800CDF81490B9
:104BA8008BB30123BAEB080A02998DF8103061EB38
:104BB8000B019A4571F10003C0F205818E4800236C
:104BC80050458B4180F29280D4F81031D4F8C81047
:104BD800002B00F0AF804FF0FF32154690457BEB7D
:104BE80005036DD30891B9453FF601AF04A904F553
:104BF8008C700CF00FF900287FF4FCAE40F2737152
:104C08002120FBF713FC8DF81030CDE90856EAE7B0
:104C18000BF018F9D4F8E830B0EB030CC4E92C0118
:104C280000F1E28094F84561D4F8C87004940795BF
:104C3800002E00F0CF802946BCFBF7F207FB0233B9
:104C4800C21A28462B4604EB8303D3F8CC3003F171
:104C58002A0E724503D32A3A0130D21AC0B2013162
:104C6800CBB29E42EFD2B4F87A3184F84401C3F350
:104C78000C038DF820009BBBBC4534BF01250123E4
:104C880004A88DF818508DF82130FEF7B3FCD4F83D
:104C9800D800A0F58170C4F8E0000AF087FFA9E603
:104CA800002763E7FFF7D8FD00287FF4A3AEB4E63A
:104CB800FEF7B6FECEE64FF4E5712120FBF7B6FB12
:104CC800B2EB08026FF001014FF0000365EB0B0532
:104CD80091420146AB4185D3904228BF114681E7F6
:104CE800D4F84021032500230592C9E750466BE715
:104CF80090F87031002B7FF490AE012144F23650C9
:104D080084F870110BF06EF800283FF486AE0AF0B4
:104D180051FFD4F8D830D4F8E02044F23650034498
:104D28001044C4F8D830C4F8E0000BB0BDE8F04F28
:104D38000AF03CBF039E94F845512A3655B1012329
:104D480004EB83020133D2F8CC20DBB22A32AB4227
:104D58001644F5D907228E42A1FB02253CD0D4F88F
:104D6800C030D218D4F8C43045EB030536E794F8C0
:104D78007C112046FFF72EFDD4F8E810D4F8B8309F
:104D8800D4F8C8505A1AD4F8EC30059020468DF85B
:104D98001090B2FBF5F205FB02F252184FF0040135
:104DA80043F1000308928DF819100993FFF766FC88
:104DB80029468DF8180004A80FF063FACDF804907E
:104DC800DDE90856BCE60020FEE6012345465E46BE
:104DD8000193B5E6284646E7D4F8B030D218D4F89F
:104DE800B43045EB0305F9E6FFF7AAFC40F296411B
:104DF8002120FBF71BFB00BF0040420F90F8142155
:104E080012B190F8143103B97047FFF79FBC00BF87
:104E180090F8142112B190F8143103B97047FFF7D4
:104E280095BC00BF90F8143103F0FF020BB910468F
:104E38007047FFF78BBC00BF90F86C00003818BFB4
:104E48000120704730B585B090F81431002B5FD140
:104E580003F0FF020B78CDE90122039213F001025F
:104E680003F0040423D08D680195002C3FD04FF047
:104E7800010CD1F80CE02A3D80F845C14968CDF80D
:104E880008E0C0F8F810C0E9321540F27121A0F826
:104E9800FC1099073AD50DEB8205531C00EB8201F3
:104EA8006A682A3AC1F8CC20BCB905B030BD24B92B
:104EB80040F2BE212120FBF7B9FACD6813F00203B6
:104EC80080F8452149680195C0F8C810C0F8F81065
:104ED80040F27121A0F8FC10DDD10DEB830200EB4C
:104EE800830352682A3AC3F8CC2005B030BD2A3D66
:104EF80080F8454149689B07C0E93215C0F8F810A9
:104F080040F27121A0F8FC10C5D4CEE71346CBE7D8
:104F180040F2A5212120FBF789FA00BFD0F8102123
:104F280042B190F8143103F0FF020BB910467047F4
:104F3800FFF70CBC0C221046704700BF70B590F804
:104F4800153113B10026304670BD04460D460AF0EF
:104F58002BFE94F87831062D46D8DFE805F02904B1
:104F68000407310404000126304670BD033B012BC1
:104F78008CBF4FF457724FF46172D4F8B010D4F864
:104F8800D830401AA3F58E738518AB428CBF012622
:104F98000026D8D82046FFF75FFC0028D3D0D4F8E5
:104FA800D860A6F58E76B5422CBF00260126CAE742
:104FB800022B12D007D8012B11D14FF40472DCE771
:104FC8004FF40272D9E7DA1E012A08D8032B40F2FF
:104FD800563208BF4FF4E562CFE7F822CDE740F23A
:104FE80017119E20FBF722FA4FF44B712120FBF793
:104FF8001DFA00BFF8B50D4606460021D5F8E001B8
:1050080005F5EC7703F0D4FFB042044613D001460F
:10501800384603F095FF002333623CB194E80E0054
:105028005B1842F10002C5E97632F8BD00231A4642
:10503800C5E97632F8BD8368D5F8E021934208D2F5
:10504800816931B10146384603F07AFF00232362B3
:10505800E4E79342376238BF1346F269B360002A27
:10506800E4D00ECA5B1842F10002C5E97632F8BDF9
:105078002DE9F04F8BB090F81421002A40F00A81F6
:1050880004460D4602F0FF03FF2280F8142180F841
:10509800153190F84561194680F84431184604EBFB
:1050A80083030131D3F8CC20CBB22A329E4210447C
:1050B800F5D2D4F8C830984200F0BE80D4F8CC308D
:1050C800002E00F0B280D4F8D020012E134403F152
:1050D800540303D0D4F8D4202A321344C4F8F0304F
:1050E8000AF062FDD4F8CC7094F8456107F12A08FB
:1050F80056B1012304EB83020133D2F8CC20DBB292
:105108002A32B3429044F5D910F5FA66D4F8C8B0FB
:1051180041F1000903F042FF824604F1E8005146DC
:10512800039003F00DFFD4F8101111B10398FFF7A5
:1051380061FFC3450CBFD4F8F080D4F8C880BAF139
:10514800000F7CD0DAF808004246DAF80030DAF8C6
:105158000410C018CDE9006941F1000110F095FB79
:1051680080456ED3861949F10009D4F8C82002F2A7
:10517800CF730344B3FBF2F302FB03F3F31AC4F84F
:10518800E83069F10003C4F8EC30002D4FD0ADB21F
:1051980042F2107132464B46E5FB0123C4E92A234B
:1051A80094F87C112046FFF715FBD4F8A830054683
:1051B800D4F8AC00991B60EB0900012970F1000CD0
:1051C800D4E93A2342DB8F424FF0000CC4F8D850A0
:1051D8007CEB000C2046A8BF0F46C4E93023D4F866
:1051E800CC3032469F4228BF1F460423C4E92C69AD
:1051F8008DF819304B46C4F8DC70C4E92E69FFF706
:105208003DFA0023BD4208968DF818000595CDF8A3
:1052180024908DF8103033D804A904F58C700BF065
:10522800F9FD90B30BB0BDE8F08F2A3356E74FF085
:10523800FF326FF00043B1E741F288334EE7504642
:1052480093E740F24D312120FBF7F0F8C4E9302311
:1052580000270423324620468DF819304B46C4F8FF
:10526800D850C4F8DC70C4E92C69C4E92E69FFF78A
:1052780005FA05958DF810708DF81800CDE90869C4
:105288004FF41F712120FBF7D1F840F27D21212036
:10529800FBF7CCF840F267212120FBF7C7F800BFE5
:1052A80038B590F81431DBB90D4619B304460246F7
:1052B800134900F58C700BF0A3FD1149224604F543
:1052C800A4700BF09DFDC4F810516B7B03F0FF0137
:1052D8005BB984F816112046BDE83840FFF7C8BE10
:1052E8004FF423712120FBF7A1F840F293212120EC
:1052F800FBF79CF840F28D212120FBF797F800BFBF
:10530800D949000138B504460D460246084900F55A
:105318008C700BF075FD04F5A470224604490BF05F
:105328006FFD29462046BDE83840FFF7A1BE00BF03
:10533800D94900012DE9F04F87B090F81531002BBD
:1053480040F0BD80044603F0FF060AF02DFC94F8F7
:10535800451133460133DAB29142FBD2D4F8E82042
:1053680000F58E7BD4F8C830851AD4F8EC70B5FBFC
:10537800F3F503FB05F5AD18ABEB050B47F100079B
:105388005B4594BFABEB030ADA46002900F0D980ED
:10539800D4F8CC3003F12A02524504D8AAEB03030F
:1053A8000126A3F12A0A012919D0D4F8D03003F133
:1053B8002A02524505D8AAEB03030136A3F12A0AAB
:1053C800F6B202290BD0D4F8D43003F12A02924560
:1053D80005D3AAEB03030136A3F12A0AF6B2A319EF
:1053E8002046B14693F87C11FFF7F4F9504404EBDA
:1053F8008603D3F8CC80804568D3A8EB0A08B8F1B7
:10540800000FC0F2AE801BEB0505D4F8E830D4F8E5
:10541800B0204FF0000647F10007D4F8EC10D21A7C
:1054280000F19380D4F8C800B2FBF0F200FB02F25E
:10543800D21841F10001C4E93A21AA1A002AC0F29F
:10544800848004EB0903204693F87C11FFF7C2F926
:10545800D4F8A830D4F8AC2082465B1B62EB070274
:10546800012B72F1000140DB4FEAE871984504EB2B
:10547800890991412A46D9F8CC60A8BF98460423E7
:1054880046458DF809303B4628BF4646C4E92E57A5
:10549800C4E936062046FFF7F1F80023B245049523
:1054A8008DF80800CDF804A005978DF8003032D8A3
:1054B800694604F58C700BF0ADFC002856D009F055
:1054C80015F807B0BDE8F04F0BF086BC94F84521FD
:1054D800D4F8C830B24228D89B4534D3BBEB430F2D
:1054E8004FEA430238D2934689E70423C4F8D80028
:1054F8002A4620468DF809303B46C4F8DC60C4E9EA
:105508002E57FFF7BBF8CDF804A08DF808008DF8EA
:105518000060CDE904572046FEF74AFA08F0E6FF96
:1055280007B0BDE8F04F0BF057BC01369B45F6B20B
:105538000DD204EB8603B146D3F8CC8008F12A0BD0
:105548005DE70E464BE79B4659E7FFF7F9F84FF43E
:1055580085612120FAF76AFF40F245412120FAF7D8
:1055680065FF40F24E412120FAF760FF40F25A7180
:105578002120FAF75BFF00BF01292DE9F04F05460E
:1055880083B02FD9022940F0CD80D0F81031002BFC
:1055980000F0D280002422465C7390F8781161F301
:1055A800070261F30F22A3F82021FF2683F8226166
:1055B8000339D0F81001012900F1E8008CBF00215F
:1055C80001210FF0FEFBD5F8100111F041F8C5F8E4
:1055D800104185F8166108F089FF03B0BDE8F04F67
:1055E8000BF0FABB01F0010A0026D0E92C9808F06C
:1055F80095FC95F878718346504639460EF0BBFE07
:105608000446384609F068FB0146BAF1000F03D09A
:10561800BB1EDBB2022B6DD94FF4FC7214EB0B03EB
:1056280046F1000613EB0904484B48EB060633F82D
:10563800173003F2E7330B444549A1FB03139B09D9
:10564800E31A66F100069C1846F1000610F046F9C8
:105658009130D5F81071241AD7F8C88066F1000681
:1056680003F096FC05F1E803834237D04246D7E9B8
:105678007601CDE9004610F008F9804561D3354B35
:10568800D5F810211B6892F82A11834215D9D2F84F
:10569800C830C2F8D830034400293FD141F66A0126
:1056A8000D468842A2F8DC5041D21B1946F100068B
:1056B800C2E9763603B0BDE8F08F01BB264BA3FBE9
:1056C800001340F2E2419B0A01FB03F3C2F8D83011
:1056D80041F66A03A2F8DC300346E6E797F82901A9
:1056E8000028CCD04246CDE90046D5E93A0110F071
:1056F800CCF8C4E7194A02EB8303DA688EE7184B43
:10570800A3FB001364215B0901FB03F3C2F8D83043
:105718004FF4FA73A2F8DC300346C6E74FF4FA7187
:105728000D46BEE74FF404612120FAF77FFE4FF4DF
:10573800FA612120FAF77AFE40F2DB712120FAF7AC
:1057480075FE40F261312120FAF770FE0C23020148
:10575800D34D6210E80400215917B7D1BC200201CB
:105768001F85EB5108B558B101280CD10B4B40F6F9
:10577800C4121A601A6841F669039A4208D808BD2B
:10578800064B1860F6E740F653012120FAF74EFE63
:1057980040F65C012120FAF749FE00BFE804002129
:1057A80010B504460DF036FB08B9002010BDE043E3
:1057B8000DF030FB0028F8D0E31683EAA4635A1EE4
:1057C8001A42F2D0E3B25A1E13405A1E1342ECD0CA
:1057D800A0B20FF033FC0B28E7D820460FF02AFCC4
:1057E8001828E2D8A3B2B3EB144F04D184EA1423E7
:1057F80013F0FF1FD9D0044B6340581E18400038DF
:1058080018BF0120D2E700BFD6BE898EF0B5070CBD
:10581800164BA7F5AA4203EA9023543A012A20D945
:1058280027F4004042F6AA22801A18BF012000225D
:1058380016211F24164687EA060562EA0505013582
:1058480011D0DD0301394FEA5303ADB245EA5606DC
:105858004FEAC4354FEA5404ADB245EA5202EAD1E0
:10586800F0BD0020E3E70020FAE700BFE0FF3F00BB
:10587800F7B5002506462C463278ABB29A4207D8CF
:105888000F4B0020B3F864201444A3F864400EE0E2
:1058980006EB850701A9B7F801000EF0B1FD60B964
:1058A8000199B7F80330CA8C934202D9122003B089
:1058B800F0BDD21A23449CB2CA840135DCE700BF8C
:1058C8007C050021F7B5002304460E461746CDE9AE
:1058D80000336846FBF7DEF908B100201AE0009DA6
:1058E800A542F6D0304605F1AD030DF07AFB3946F6
:1058F80095F8AC200EF055FC0028EAD005F1B40369
:1059080095F8B32004F1B40194F8B3000EF049FC03
:105918000028DED003B0F0BD054A516A02F11D032C
:10592800127F11F8030BC0F380100EF03ABC00BFD1
:10593800B80A0021012817D80D48824216D8012B31
:105948000DD140F252739A4210D9A1F6C410094BF6
:1059580098420BD88A428CBF122000207047042B33
:10596800F3D140F6C313EEE712207047302070479A
:105978008FFD7002CBF370020138C0B2032808B55E
:1059880004D94FF43F710620FAF750FD014B185C1B
:1059980008BD00BFD82002010138C0B2032808B5ED
:1059A80004D94FF43F710620FAF740FD014B185C0B
:1059B80008BD00BF302102010138C0B2032808B574
:1059C80004D94FF43F710620FAF730FD014B185CFB
:1059D80008BD00BF0C22020107B50D4AB2F86430B9
:1059E8009BB1013B01A9A2F864300EF009FD20B17A
:1059F80040F223513920FAF719FD019A0120D38C7E
:105A08000133D38403B05DF804FB1846FAE700BFFE
:105A18007C05002110B504460A48FDF7CFFF0A4966
:105A28002046FFF70FFA2046FDF76EFE38B12046F4
:105A3800FDF7AAFE2046FDF7B7FF002010BD122093
:105A4800FCE700BFB0050021B8050021F8B50D46F8
:105A5800074640F67A4CBDF81860A81FBDF81C1020
:105A680080B2604515D8941FA4B264458CBF00204D
:105A7800012087B9194C247C84B188B96FF4506728
:105A8800EC19062C04D86FF450641419062C07D9A5
:105A9800F8BD0020EDE797F88140EDE70028F7D042
:105AA800954218D803FB0111B1F5FA7F13DCA6F172
:105AB8000A0340F676409BB283420CD810460DF09C
:105AC800B0FA42F2107341435E43B6EB410F8CBF0C
